S0220000636F6E74726F6C5F6261745F74656D705F4D31365F76312E31382E73726563A6
S11300000C946D010C948A010C948A010C948A015D
S11300100C94500E0C948A010C94000D0C94F60C64
S11300200C948A010C948A010C948A010C940A0D94
S11300300C948A010C948A010C948A010C948A0110
S11300400C948A010C948A010C948A010C948A0100
S11300500C948A01202020202020202020202020F1
S11300602020202000202020202053746F726564FB
S1130070202020202000202020202020202020209C
S1130080202020202020004D616E75616C6C792049
S1130090537461727465640054656D702E206869D0
S11300A06768206C696D69740020204C6F7720208C
S11300B03E2020486967687420005761726E696E3B
S11300C06720736574706F696E740054656D702E6B
S11300D0206C6F77206C696D697420004261742E06
S11300E0206C6F776572206C696D6974005065725D
S11300F06B696E7320202059616E6D617200204718
S1130100656E657261746F72205479706520002089
S113011052657374696E672054696D6520202000F0
S113012020576F726B696E672054696D65202020BB
S1130130002052657374696E672054696D652020D0
S1130140200020576F726B696E672054696D6520BB
S11301502020003C2D65786974202020656E74652C
S1130160722D3E0048696768742074656D7065720D
S113017061742E20003C2D65786974202020656E02
S11301807465722D3E004C6F77202074656D706528
S1130190726174757265003C2D6578697420202045
S11301A0656E7465722D3E004261747465727920C7
S11301B0766F6C7461676520003C2D6578697420E6
S11301C02020656E7465722D3E0020202047656EE8
S11301D0657261746F7220202020003C2D6578695F
S11301E074202020656E7465722D3E002054656D68
S11301F07065722E2054696D65722020003C2D6557
S1130200786974202020656E7465722D3E00205636
S11302106F6C746167652054696D657220200020DD
S11302202020202020202020656E7465722D3E0041
S113023020204D414E55414C2053544152542020CE
S113024000202020202020202020656E7465722D3F
S11302503E0020202020434F4E54524F4C2020205B
S1130260202000202020202020202020656E74657E
S1130270722D3E0020202020534554494E475320E0
S113028020202020002020205665722E2030312E80
S113029031382020200020206774732D656C2E6374
S11302A06F6D202020200047545320454C45435473
S11302B0524F4E494353200020202020646973612B
S11302C0626C656421202020002020202053657466
S11302D0706F696E74202020200011241FBECFE5AA
S11302E0D4E0DEBFCDBF11E0A0E6B0E0EEE5FBE375
S11302F002C005900D92AC30B107D9F721E0ACE013
S1130300B1E001C01D92AC3CB207E1F70E94B80F06
S11303100C94AD1D0C94000080915A01813031F091
S113032081E09091B001913009F080E008950F933D
S11303301F93EAE7F1E020812F7030E0A0EABCE8E7
S11303400E94491A21812F70A0E1BEE02A9FA001DA
S11303502B9F500D11248A01550F220B330BDC0106
S1130360CB01800F911FA21FB31F23812F7068E55B
S113037072E0269FA001279F500D1124052E000C2A
S1130380660B770B840F951FA61FB71F44814F7010
S11303902CE3429FA0011124052E000C660B770B61
S11303A0840F951FA61FB71F26812F7030E0A90167
S11303B0440F551F220F331F220F331F220F331FE9
S11303C0420F531F052E000C660B770B840F951FED
S11303D0A61FB71F27812F70820F911DA11DB11D6C
S11303E081879287A387B48780E3858786879AE38A
S11303F09787808B818B928B838B848B158A168A4B
S1130400178A108E118E81E0828F1F910F910895AB
S11304100F931F93E0E2F1E020812F7030E0A0EA17
S1130420BCE80E94491A21812F70A0E1BEE02A9FF6
S1130430A0012B9F500D11248A01550F220B330B61
S1130440DC01CB01800F911FA21FB31F23812F70EA
S113045068E572E0269FA001279F500D1124052E08
S1130460000C660B770B840F951FA61FB71F4481E2
S11304704F702CE3429FA0011124052E000C660B43
S1130480770B840F951FA61FB71F26812F7030E0AE
S1130490A901440F551F220F331F220F331F220FB0
S11304A0331F420F531F052E000C660B770B840F6E
S11304B0951FA61FB71F27812F70820F911DA11DA5
S11304C0B11D81879287A387B48780E38587868758
S11304D09AE39787808B818B928B838B848B158A8D
S11304E0168A178A108E118E81E0828F1F910F91C8
S11304F008950F931F93E0E4F1E020812F7030E022
S1130500A0EABCE80E94491A21812F70A0E1BEE054
S11305102A9FA0012B9F500D11248A01550F220BF5
S1130520330BDC01CB01800F911FA21FB31F23816A
S11305302F7068E572E0269FA001279F500D1124BB
S1130540052E000C660B770B840F951FA61FB71F93
S113055044814F702CE3429FA0011124052E000C0E
S1130560660B770B840F951FA61FB71F26812F706C
S113057030E0A901440F551F220F331F220F331FF0
S1130580220F331F420F531F052E000C660B770BEF
S1130590840F951FA61FB71F27812F70820F911DEF
S11305A0A11DB11D81879287A387B48780E38587C6
S11305B086879AE39787808B818B928B838B848B3E
S11305C0158A168A178A108E118E81E0828F1F91E8
S11305D00F9108950F931F93E6E9F1E020812F70A6
S11305E030E0A0EABCE80E94491A21812F70A0E102
S11305F0BEE02A9FA0012B9F500D11248A01550FA4
S1130600220B330BDC01CB01800F911FA21FB31F00
S113061023812F7068E572E0269FA001279F500D6B
S11306201124052E000C660B770B840F951FA61F53
S1130630B71F44814F702CE3429FA0011124052E63
S1130640000C660B770B840F951FA61FB71F26811E
S11306502F7030E0A901440F551F220F331F220FC2
S1130660331F220F331F420F531F052E000C660B3E
S1130670770B840F951FA61FB71F27812F70820F3A
S1130680911DA11DB11D81879287A387B48780E343
S1130690858786879AE39787808B818B928B838B60
S11306A0848B158A168A178A108E118E81E0828FA8
S11306B01F910F910895E8EBF1E080E3808381833B
S11306C09AE39283838384839583868387831086C6
S11306D008952FEF89E698E1215080409040E1F79A
S11306E000C00000A8958FE18093180108950E942E
S11306F0191A8EEF90E09F938F930E94811A0E94A3
S1130700201A8DEE90E09F938F930E94811A0E948D
S1130710191A0F900F900F900F9008950E94191AB4
S113072085E690E09F938F930E94811A0E94201A7D
S113073084E590E09F938F930E94811A0E94191A76
S11307400F900F900F900F9008950E94191A82E451
S113075091E09F938F930E94811A0E94201A8AE746
S113076091E09F938F938FE690E09F938F930E94E5
S11307706B1A0E94191A0F900F900F900F900F9000
S11307800F9008950E94191A81E391E09F938F932B
S11307900E94811A0E94201A80E491E09F938F9313
S11307A08FE690E09F938F930E946B1A0E94191A10
S11307B00F900F900F900F900F900F9008950E943C
S11307C0191A80E291E09F938F930E94811A0E94EC
S11307D0201A80E291E09F938F938FE690E09F939D
S11307E08F930E946B1A0E94191A0F900F900F900A
S11307F00F900F900F9008950E94191A8FE091E0C6
S11308009F938F930E94811A0E94201A86E991E097
S11308109F938F938FE690E09F938F930E946B1A20
S11308200E94191A0F900F900F900F900F900F9035
S113083008950E94191A8CED90E09F938F930E9463
S1130840811A0E94201A81EB91E09F938F9380E894
S113085090E09F938F930E946B1A0E94191A0F9035
S11308600F900F900F900F900F9008950E94191AF7
S11308708BEC90E09F938F930E94811A0E94201A20
S113088086E691E09F938F938FE890E09F938F93F8
S11308900E946B1A0E94191A0F900F900F900F90DC
S11308A00F900F9008950E94191A88E990E09F9381
S11308B08F930E94811A0E94201A8DE591E09F93E4
S11308C08F938FE890E09F938F930E946B1A0E94FE
S11308D0191A0F900F900F900F900F900F9008958A
S11308E00E949D1960E080EC0E947E190E949D196F
S11308F060E08FE00E947E190895811103C00E9478
S113090070040895813069F40E949D1960E081ECBF
S11309100E947E190E949D1960E08FE00E947E195A
S11309200895823069F40E949D1960E082EC0E946F
S11309307E190E949D1960E08FE00E947E1908953F
S1130940833069F40E949D1960E083EC0E947E1953
S11309500E949D1960E08FE00E947E190895843002
S113096069F40E949D1960E084EC0E947E190E9443
S11309709D1960E08FE00E947E1908958A3069F421
S11309800E949D1960E08AEC0E947E190E949D19C4
S113099060E08FE00E947E19089510921A010E946F
S11309A0700408950E949D1960E08EE00E947E19F3
S11309B008958F929F92AF92BF92FF920F931F93CD
S11309C0CF93DF93A895EAE7F1E020812F7030E020
S11309D0A0EABCE80E94491A21812F7000E11EE0C0
S11309E0209FA001219F500D11244A01550FAA08F0
S11309F0BB08AB01BC01480D591D6A1D7B1D238139
S1130A002F70C8E5D2E02C9FC0012D9F900D1124BA
S1130A10092E000CAA0BBB0B480F591F6A1F7B1F22
S1130A2084818F700F2EFCE3FF2EF02DF89EC00101
S1130A301124092E000CAA0BBB0B480F591F6A1F67
S1130A407B1F26812F7030E0C901880F991F220F68
S1130A50331F220F331F220F331F820F931F092EC0
S1130A60000CAA0BBB0B480F591F6A1F7B1F878101
S1130A708F70480F511D611D711D41875287638717
S1130A8074878CB388E190E00E94591DA895E0E436
S1130A90F1E020812F7030E0A0EABCE80E94491AFE
S1130AA021812F70209FA001219F500D11244A0104
S1130AB0550FAA08BB08AB01BC01480D591D6A1D9E
S1130AC07B1D23812F702C9FC0012D9F900D11241D
S1130AD0092E000CAA0BBB0B480F591F6A1F7B1F62
S1130AE084818F70F89EC0011124092E000CAA0B7A
S1130AF0BB0B480F591F6A1F7B1F26812F7030E0E4
S1130B00C901880F991F220F331F220F331F220F91
S1130B10331F820F931F092E000CAA0BBB0B480F27
S1130B20591F6A1F7B1F87818F70480F511D611DDC
S1130B30711D41875287638774878CB384E190E089
S1130B400E94591DA895E0E2F1E020812F7030E069
S1130B50A0EABCE80E94491A21812F70209FA001BD
S1130B60219F500D11244A01550FAA08BB08AB015F
S1130B70BC01480D591D6A1D7B1D23812F702C9FBC
S1130B80C0012D9F900D1124092E000CAA0BBB0B44
S1130B90480F591F6A1F7B1F84818F70F89EC00104
S1130BA01124092E000CAA0BBB0B480F591F6A1FF6
S1130BB07B1F26812F7030E0C901880F991F220FF7
S1130BC0331F220F331F220F331F820F931F092E4F
S1130BD0000CAA0BBB0B480F591F6A1F7B1F878190
S1130BE08F70480F511D611D711D418752876387A6
S1130BF074878CB380E190E00E94591DA895E6E9C2
S1130C00F1E020812F7030E0A0EABCE80E94491A8C
S1130C1021812F70209FA001219F500D11248A0152
S1130C20550F220B330BAB01BC01400F511F621F48
S1130C30731F23812F702C9FC0012D9F900D1124B1
S1130C40092E000CAA0BBB0B480F591F6A1F7B1FF0
S1130C5084818F70F89EC0011124092E000CAA0B08
S1130C60BB0B480F591F6A1F7B1F26812F7030E072
S1130C70C901880F991F220F331F220F331F220F20
S1130C80331F820F931F092E000CAA0BBB0B480FB6
S1130C90591F6A1F7B1F87818F70480F511D611D6B
S1130CA0711D41875287638774878CB38CE090E011
S1130CB00E94591DA895E1EBF1E020812F7014E604
S1130CC081818F7090E0BC01660F771F880F991F98
S1130CD0880F991F880F991F680F791F129F600D45
S1130CE0711D112483818F70680F711D7093B7017A
S1130CF06093B6018CB38AE090E00E94611DA895D0
S1130D00CBE5D1E02B852F708C858F7090E0BC01F2
S1130D10660F771F880F991F880F991F880F991FD7
S1130D20680F791F129F600D711D11248E858F70BD
S1130D30680F711D7B8B6A8B8CB388E090E00E94F6
S1130D40611DA8952A812F708B818F7090E0BC0162
S1130D50660F771F880F991F880F991F880F991F97
S1130D60680F791F129F600D711D11248D818F7082
S1130D70680F711D7A8769878CB386E090E00E94C2
S1130D80611DA8958CB360913B0170913C0184E096
S1130D9090E00E94611DA8958CB36091950183E059
S1130DA090E00E944C1D60913D0182E090E00E9421
S1130DB04C1D688181E090E00E944C1D698180E0B7
S1130DC090E00E944C1DDF91CF911F910F91FF90F5
S1130DD0BF90AF909F908F9008953F924F925F92F3
S1130DE06F927F928F929F92AF92BF92CF92DF9237
S1130DF0EF92FF920F931F93CF93DF93A8958CB339
S1130E0088E190E00E94401D6B017C01CAE7D1E0BB
S1130E1069877A878B879C87A8950F2EF0EA4F2ED7
S1130E20FCE85F2E612C712CF02DA30192010E942D
S1130E30271A822F80638883A0EABCE80E94581A8C
S1130E40C61AD70AE80AF90A0F2EF0E18F2EFEE03F
S1130E509F2EA12CB12CF02DC701B601A501940140
S1130E600E94271A822F806389830AE30A83A0E100
S1130E70BEE00E94581AC61AD70AE80AF90AC7013E
S1130E80B60128E532E040E050E00E94271A822FA4
S1130E9080638B83A8E5B2E00E94581AA7019601EB
S1130EA0261B370B480B590BCA01B9012CE330E060
S1130EB040E050E00E94271A20632C830D8310E346
S1130EC01E831F831886A8958CB384E190E00E944A
S1130ED0401D6B017C01C0E4D1E069877A878B8770
S1130EE09C87A895A30192010E94271A822F8063F0
S1130EF08883A0EABCE80E94581AC61AD70AE80AEE
S1130F00F90AC701B601A50194010E94271A822F8C
S1130F10806389830A83A0E1BEE00E94581AC61A3E
S1130F20D70AE80AF90AC701B60128E532E040E029
S1130F3050E00E94271A822F80638B83A8E5B2E0D9
S1130F400E94581AA7019601261B370B480B590B10
S1130F50CA01B9012CE330E040E050E00E94271AB6
S1130F6020632C830D831E831F831886A8958CB35E
S1130F7080E190E00E94401D6B017C01C0E2D1E061
S1130F8069877A878B879C87A895A30192010E9421
S1130F90271A822F80638883A0EABCE80E94581A2B
S1130FA0C61AD70AE80AF90AC701B601A5019401CD
S1130FB00E94271A822F806389830A83A0E1BEE0FE
S1130FC00E94581AC61AD70AE80AF90AC701B601D4
S1130FD028E532E040E050E00E94271A822F806327
S1130FE08B83A8E5B2E00E94581AA7019601261B3C
S1130FF0370B480B590BCA01B9012CE330E040E030
S113100050E00E94271A20632C830D831E831F83C4
S11310101886A8958CB38CE090E00E94401D6B016B
S11310207C01C6E9D1E069877A878B879C87A8957C
S1131030A30192010E94271A822F80638883A0EA69
S1131040BCE80E94581A26013701461A570A680A52
S1131050790AC301B201A50194010E94271A822FC3
S1131060806389830A83A0E1BEE00E94581A461A6D
S1131070570A680A790AC301B20128E532E040E060
S113108050E00E94271A822F80638B83A8E5B2E088
S11310900E94581AA3019201261B370B480B590BC7
S11310A0CA01B9012CE330E040E050E00E94271A65
S11310B020632C830D831E831F831886A8958CB30D
S11310C08AE090E00E94461D9093B7018093B60198
S11310D0A8956C01E12CF12C0F2EF4E64F2E512C27
S11310E0612C712CF02DC701B601A30192010E945D
S11310F0271AC1EBD1E0822F80638883A4E6B0E095
S11311000E94581AC61AD70AE80AF90A0F2EFAE0FA
S11311108F2E912CA12CB12CF02DC701B601A50165
S113112094010E94271A822F806389831EE21A8306
S1131130822F932FA42FB52F880F991FAA1FBB1F8F
S1131140AC01BD01440F551F661F771F440F551F87
S1131150661F771F840F951FA61FB71FA70196014F
S1131160281B390B4A0B5B0BDA01C90180638B83A3
S11311701C82A8958CB388E090E00E94461DCBE5C4
S1131180D1E09B8B8A8BA8956C01E12CF12CC701D3
S1131190B601A30192010E94271A822F80638B87D4
S11311A0A4E6B0E00E94581AC61AD70AE80AF90A57
S11311B0C701B601A50194010E94271A822F8063FA
S11311C08C871D87822F932FA42FB52F880F991FEB
S11311D0AA1FBB1FAC01BD01440F551F661F771F1B
S11311E0440F551F661F771F840F951FA61FB71F37
S11311F0A7019601281B390B4A0B5B0BDA01C901C5
S113120080638E870F2EFFED3F2EF02D3F8603E483
S1131210088B198AA8958CB386E090E00E94461D3D
S11312209A878987A8956C01E12CF12CC701B60136
S1131230A30192010E94271A822F80638A83A4E665
S1131240B0E00E94581AC61AD70AE80AF90AC70178
S1131250B601A50194010E94271A822F80638B8313
S11312601C83822F932FA42FB52F880F991FAA1F99
S1131270BB1FAC01BD01440F551F661F771F440FF0
S1131280551F661F771F840F951FA61FB71FA70141
S11312909601281B390B4A0B5B0BDA01C9018063E9
S11312A08D833E820F831886A8958CB384E090E0EA
S11312B00E94461D90933C0180933B01A895813D7B
S11312C0974080F08CB360ED77E084E090E00E947A
S11312D0611D8CB384E090E00E94461D90933C0114
S11312E080933B018CB3A8958CB383E090E00E947B
S11312F0381D8093950182E090E00E94381D809310
S11313003D0181E090E00E94381DCBE5D1E0888367
S113131080E090E00E94381D8983A8958CB3DF910A
S1131320CF911F910F91FF90EF90DF90CF90BF90DE
S1131330AF909F908F907F906F905F904F903F9071
S1131340089520911801273129F580911A018F5FA2
S113135080931A0180911A018B3020F00E94690356
S113136082E0089580911A01823029F480911A0153
S11313708F5F80931A0180911A01853018F08AE0FA
S113138080931A0180911A010E947D040E946903CE
S113139080E00895209118012F30D1F520911A0191
S11313A0FC01E20FF11D20812F5F208320911A019F
S11313B0233079F420911A01FC01E20FF11D208100
S11313C0263338F020911A01FC01E20FF11D25E3C8
S11313D0208320911A01222341F020911A01213007
S11313E021F020911A01243079F420911A01FC0192
S11313F0E20FF11D20812A3338F020911A01FC01FB
S1131400E20FF11D29E320830E94690383E008951C
S1131410209118012D31D9F520911A01222361F070
S113142020911A01213041F020911A01233021F03A
S113143020911A01243081F420911A01FC01E20F59
S1131440F11D2081203341F020911A01FC01E20FAB
S1131450F11D80818150808380911A018A3099F432
S11314600E94D9040E94ED060E94D2040E948E03B9
S1131470A8952FEF83ED90E3215080409040E1F751
S113148000C00000A8950E94690383E0089580913C
S113149018018B3129F580911A01811104C00E9431
S11314A0690381E0089580911A018A3021F484E06F
S11314B080931A010DC080911A01833021F481E0D8
S11314C080931A0105C080911A01815080931A01FA
S11314D080911A010E947D040E94690380E00895AE
S11314E080E0089520911801273119F580911A019F
S11314F08F5F80931A0180911A018B3020F00E9433
S1131500690382E0089580911A01823019F483E01E
S113151080931A0180911A01843018F08AE0809334
S11315201A0180911A010E947D040E94690380E0DF
S11315300895209118012F30F9F420911A01FC012B
S1131540E20FF11D20812F5F208320911A012430A6
S113155078F420911A01FC01E20FF11D20812A3355
S113156038F020911A01FC01E20FF11D29E32083D8
S11315700E94690383E00895209118012D3109F038
S1131580B5C020911A01243080F420911A01FC0185
S1131590E20FF11D2081203341F020911A01FC015A
S11315A0E20FF11D80818150808380911A018A307D
S11315B009F098C080911901803229F080911901B5
S11315C0813209F07CC0EBE5F1E023852F7074E6ED
S11315D084858F7090E0AC01440F551F880F991FCC
S11315E0880F991F880F991F480F591F729F400D2C
S11315F0511D112486858F70480F511D538B428BCA
S113160062816F7023812F7030E0C901880F991FA8
S1131610220F331F220F331F220F331F820F931FFA
S1131620769F800D911D112425812F70820F911DAD
S1131630928781874817590770F10E94D2040E944B
S1131640191A8AEB90E09F938F930E94811A0E944B
S1131650201A89EA90E09F938F930E94811A0E9436
S1131660191AA8952FEF83ED90E321508040904004
S1131670E1F700C00000A8952FEF89E698E121501A
S113168080409040E1F700C00000A8950F900F90B3
S11316900F900F9027C00E94D9040E94ED060E946B
S11316A0D2040E948E03A8952FEF83ED90E321507E
S11316B080409040E1F700C00000A89513C00E944C
S11316C0D9040E94ED060E94D2040E948E03A895BC
S11316D02FEF83ED90E3215080409040E1F700C06C
S11316E00000A8950E94690383E008958091180181
S11316F08B3129F580911A01811104C00E9469037C
S113170081E0089580911A018A3021F483E0809366
S11317101A010DC080911A01833021F481E0809375
S11317201A0105C080911A01815080931A01809199
S11317301A010E947D040E94690380E0089580E0FC
S11317400895DE98D69A8FE797E00197F1F700C0E5
S11317500000D698EFEEF0E03197F1F700C00000FA
S113176089B3EFE8F6E03197F1F700C00000807428
S11317700895DE98D69A95E09A95F1F700008111C4
S1131780D6988FEE90E00197F1F700C00000D6984C
S11317900895DE98D69A85E08A95F1F70000D698E8
S11317A09AE49A95F1F700C089B390EF9A95F1F70E
S11317B086FB882780F90895CF93DF93D8E0C0E0B3
S11317C00E94C90B20E8829FC0011124C695C82B32
S11317D0D150B1F78C2FDF91CF910895CF93DF9340
S11317E0D82FC8E08D2F81700E94B90BD695C150B7
S11317F0C9F7DF91CF9108950F931F93CF93DF9390
S11318000E94A10B0E94C90B8823E1F30E94A10B43
S11318108CEC0E94EE0B8EEB0E94EE0B0E94DC0B14
S1131820C82F0E94DC0BD82F0E94A10B8C2F90E0B4
S1131830A0E0B0E09C01AD013D2BD87F09F44DC080
S1131840CBE5D1E081E090E09E8F8D8F415051092E
S1131850AFE8BDEF0E94661A28EE33E040E050E0A6
S11318600E94271A422FE22FF32FFC8FEB8F9F0148
S11318703695279536952795ABE7B4E10E94491A2A
S11318808C01169507959F0184E6089F201931095C
S11318901124ADECBCEC0E94491A96958795969557
S11318A08795969587959EE29E8B9FED988F93E4FE
S11318B0998F1A8E902F90639C8B982F90639D8B99
S11318C024E6029F40191124880F982F990F990F2D
S11318D0890F481B40634F8B68C0CBE5D1E01E8E57
S11318E01D8EA1E7B2E00E94581A28EE33E040E0D2
S11318F050E00E94271AE22F422F532F5C8F4B8F08
S1131900483E33E0530768F08EE38C8B81E38D8B84
S113191080E38E8B8F8B8FED888F83E4898F1A8E73
S113192044C09A013695279536952795ABE7B4E1DF
S11319300E94491AEC01D695C7959A0184E6C89F7E
S1131940201931091124ADECBCEC0E94491A96957A
S113195087959695879596958795ABE5B1E09EE238
S113196056969C9356979FED58969C93589793E45C
S113197059969C9359975A961C925A979C2F906308
S113198054969C935497982F906355969C9355978F
S113199024E6C29FE0191124880F982F990F990FFC
S11319A0890FE81BE0635796EC938CEC0E94EE0BD6
S11319B084E40E94EE0B80915B01813091F480916C
S11319C05C01882371F0EBE5F1E08DE2848B9FE507
S11319D0958B9EE2968B878B8FED808F83E4818F2E
S11319E0128EDF91CF911F910F9108951F920F9244
S11319F00FB60F9211240F900FBE0F901F901895E1
S1131A001F920F920FB60F9211240F900FBE0F90DA
S1131A101F9018951F920F920FB60F9211240F90DA
S1131A200FBE0F901F9018958091BF018F5F8A336E
S1131A3018F48093BF010895E8EBF1E080E3878315
S1131A4086818F5F863318F48093BE010895E8EB96
S1131A50F1E080E3868384818F5F8A3318F4809376
S1131A60BC010895E8EBF1E080E3848383818F5F18
S1131A70863318F48093BB010895E8EBF1E080E32A
S1131A80838381818F5F8A3318F48093B901089529
S1131A90E8EBF1E080E3818380818F5F8A3318F47F
S1131AA08093B801089580E38093B8010895BF92AC
S1131AB0CF92DF92EF92FF920F931F93CF93DF9316
S1131AC0FC0184898F5F8A3310F4848B2AC080E3FD
S1131AD0848B83898F5F863310F4838B22C080E3E9
S1131AE0838B81898F5F8A3310F4818B1AC080E3E2
S1131AF0818B80898F5F863310F4808B12C080E3E2
S1131B00808B86858F5F8A3310F486870AC080E3D2
S1131B10868785858F5F8A3310F4858702C080E3CA
S1131B20858725852F7030E0A0EABCE80E94491A19
S1131B3026852F70C0E1DEE02C9F60012D9FD00C24
S1131B4011240D2C000CEE08FF08C60ED71EE81E4B
S1131B50F91E20892F7048E552E0249FC001259F7B
S1131B60900D1124092E000CAA0BBB0BC80ED91E14
S1131B70EA1EFB1E81898F700F2EFCE3BF2EF02D11
S1131B80B89EC0011124092E000CAA0BBB0BC80E71
S1131B90D91EEA1EFB1E23892F7030E08901000F35
S1131BA0111F220F331F220F331F220F331F020F67
S1131BB0131F012E000C220B330BC00ED11EE21E8C
S1131BC0F31E84898F70C80ED11CE11CF11CC68AD7
S1131BD0D78AE08EF18E20812F7030E0A0EABCE835
S1131BE00E94491A21812F702C9FD0012D9FB00D86
S1131BF011248D01BB0F220B330BDC01CB01800FB1
S1131C00911FA21FB31F63816F70649F9001659F32
S1131C10300D1124A901330F660B770B840F951F28
S1131C20A61FB71F44814F70B49EA0011124052E36
S1131C30000C660B770B840F951FA61FB71F268118
S1131C402F7030E0A901440F551F220F331F220FBC
S1131C50331F220F331F420F531F052E000C660B38
S1131C60770B840F951FA61FB71F27812F70820F34
S1131C70911DA11DB11D81879287A387B487C816C2
S1131C80D906EA06FB0610F082E0828FDF91CF913D
S1131C901F910F91FF90EF90DF90CF90BF90089528
S1131CA01F920F920FB60F9211242F933F934F93CD
S1131CB05F936F937F938F939F93AF93BF93EF93B0
S1131CC0FF9380911B018F5F80931B0180911B0107
S1131CD0803F20F0C79880EF80931B0180910E0114
S1131CE08F3F19F410920E0105C010920E0181E08D
S1131CF080931E0180910D018F5F823018F48093D0
S1131D000D0105C010920D0181E080931D018091A9
S1131D109401813021F48AE791E00E94570D80916B
S1131D205A01813021F480E491E00E94570D8091A2
S1131D303A01813021F480E291E00E94570D8091B4
S1131D40B001813021F486E991E00E94570D809121
S1131D501901813011F40E94140DFF91EF91BF918C
S1131D60AF919F918F917F916F915F914F913F912F
S1131D702F910F900FBE0F901F9018950E94191A63
S1131D8089EC92E09F938F930E94811A0E94201AFB
S1131D9088EB92E09F938F930E94811A0E94191AF4
S1131DA00F900F900F900F900895CF93DF93809131
S1131DB03D01882309F46BC087EC87B980E190E08A
S1131DC020E030E067E866B9369A3699FECF44B130
S1131DD055B1240F351F0197B1F7329522952F7015
S1131DE023273F702327A0913B01B0913C010E941F
S1131DF0491A28EE33E040E050E00E94271A273EBB
S1131E0083E0380728F430933F0120933E0106C055
S1131E1087EE93E090933F0180933E0140913E0111
S1131E2050913F019A013695279536952795ABE752
S1131E30B4E10E94491AEC01D695C7959A0194E63B
S1131E40C99F201931091124ADECBCEC0E94491A38
S1131E50969587959695879596958795E1ECF1E00B
S1131E609EE2928314829C2F90639083982F9063B8
S1131E70918324E6C29F40191124880F982F990F4B
S1131E80990F890F481B842F8063838306C0E1EC7C
S1131E90F1E08DE2808381838383DF91CF91089584
S1131EA080915B01811105C080915C01811119C091
S1131EB03CC08130E1F590915C01911121C02091E9
S1131EC07801309179012130310599F1EBE5F1E0A8
S1131ED0438D548D228933892417350778F180E0A6
S1131EE0089580915C01813031F5EBE5F1E0438D9B
S1131EF0548D218532854217530700F180E00895FF
S1131F009130E1F4EBE5F1E0238D348D8185928508
S1131F102817390790F481E040916D0150916E01CA
S1131F204217530758F080E0089581E0089581E056
S1131F300895892F089581E0089580E0089580919F
S1131F403D01882371F081E040913E0150913F01B1
S1131F502091B6013091B7014217530718F480E07D
S1131F60089581E0089587E689B988E18AB90895DA
S1131F70A8959FE088E10FB6F894A89581BD0FBE9F
S1131F8091BD1ABA8FE18BBB80E887BB18BA8FE783
S1131F9081BB12BA80E784BB15BA0E94B30F0E94BA
S1131FA0D61920E405C0A8950197E9F7215019F046
S1131FB08FEF9FEFF8CFF89489B78F7389BF82B5FD
S1131FC0886082BD14BC85E085BD82B5877021F030
S1131FD0A89582B58770E1F789B7806489BF789442
S1131FE0A89580E488B980EC87B980E886B9A8957B
S1131FF00E94ED06A89589B38F7180931C018B31E3
S1132000A9F42FEF33EC89E0215030408040E1F710
S113201000C00000A89589B38F718B3121F481E051
S113202080931C0105C010921C0102C010921C0177
S1132030E6ECF1E080E690E09583848393838283E9
S1132040C79A0E94061A0E94D2040E94191A87EAAB
S113205092E09F938F930E94811A0E94201A86E92E
S113206092E09F938F930E94811AA8959FEFE3EDCE
S1132070F0E39150E040F040E1F700C00000A89583
S11320802FEF33ED80E3215030408040E1F700C072
S11320900000A8950E94201A85E892E09F938F93F0
S11320A00E94811A0E94191A9FEFE3EDF0E3915008
S11320B0E040F040E1F700C00000A8950E94D50E72
S11320C00E94FC0B2FEF33ED80E321503040804021
S11320D0E1F700C00000A8950E94D50E0E94FC0BF9
S11320E00F900F900F900F900F900F90809195018B
S11320F0813011F4969A01C0969880911C01813028
S113210011F00C94461989B38F718B3139F481E045
S113211080931C0184E28093190104C010921C0175
S11321200C9446190E9469030E94061A7894C0E12F
S1132130D1E001EC11E00F2EF9EE2F2EF0E03F2E4E
S1132140F02D0F2EF4E66F2EF1E07F2EF02D0F2EE2
S1132150F3E54F2EF1E05F2EF02D0F2EFBE5EF2E71
S1132160F1E0FF2EF02D0F2EF6E8AF2EF1E0BF2E9A
S1132170F02D0F2EF5E78F2EF1E09F2EF02D0F2E70
S1132180F8EACF2EF1E0DF2EF02DA89580911E0104
S1132190813021F40E94D50E10921E0180911D0100
S11321A0813021F40E94FC0B10921D0180911901D1
S11321B0823021F080911901833241F4809195019C
S11321C0813011F4969809C0969A07C080919501C0
S11321D0813011F4969A01C09698E0910C0189B36C
S11321E0F0E0E05FFE4F8F718083E0910C01F0E03E
S11321F0E05FFE4F80818F3119F010921B01C79A66
S113220080910C018F5F80930C0180910C018830C8
S113221010F010920C018881998189131DC09A8154
S113222089131CC09B8189131BC09C8189131AC00C
S11322309D81891319C09E81891318C09F818913B8
S113224017C08F3111F00C944D1910920F0111C069
S113225091E090930F010DC08FE10BC08FE109C095
S11322608FE107C08FE105C08FE103C08FE101C09A
S11322708FE18093180180911901813009F0D3C056
S1132280CD9B41C00E94191A88EB91E09F938F93D4
S11322908CE990E09F938F930E946B1A0E94201AFE
S11322A01F930F9388EA90E09F938F930E946B1A79
S11322B0EDB7FEB738960FB6F894FEBF0FBEEDBF6C
S11322C0F701858D968D892B79F08FE691E09F93A8
S11322D08F9380EB90E09F938F930E946B1A0F90E3
S11322E00F900F900F9050C08FE691E09F938F93C3
S11322F08CEB90E09F938F930E946B1A0F900F903A
S11323000F900F9041C00E94191A88EB91E09F939F
S11323108F9385EB90E09F938F930E946B1A0E949A
S1132320201A1F930F9388EA90E09F938F930E9443
S11323306B1A2DB73EB7285F3F4F0FB6F8943EBFD8
S11323400FBE2DBFF701858D968D892B79F08FE611
S113235091E09F938F9380EB90E09F938F930E94E3
S11323606B1A0F900F900F900F900EC08FE691E0B4
S11323709F938F938CEB90E09F938F930E946B1AA3
S11323800F900F900F900F9080911801873129F4CE
S113239080E1809319010E94690380915A0182307F
S11323A011F410925A018091B001823011F410920C
S11323B0B001CD9BEACE0E949F0F811122C00E94E2
S11323C0500F882371F00E948C01882321F083E050
S11323D080931901DACE0E94970182E0809319015B
S11323E0D4CE0E948C01882321F083E080931901CC
S11323F0CCCE0E9497010E94080282E080931901CA
S1132400C4CE0E94500F8111C0CE0E948C0188233B
S113241021F083E080931901B8CE0E94080282E083
S113242080931901B2CE80911901823009F003C161
S11324300E94191A1F930F9381EC90E09F938F933E
S11324400E946B1A0F900F900F900F90F701858DDB
S1132450968D892B79F08FE691E09F938F9389EC89
S113246090E09F938F930E946B1A0F900F900F90A0
S11324700F900EC08FE691E09F938F938DEC90E0C8
S11324809F938F930E946B1A0F900F900F900F9051
S11324900E94201A80919401813071F487E891E0C0
S11324A09F938F9381ED90E09F938F930E946B1A7B
S11324B00F900F900F900F9080913A01813071F43A
S11324C08DE291E09F938F9381ED90E09F938F93A2
S11324D00E946B1A0F900F900F900F900E94191A80
S11324E0CD9907C081E0809319010E945B030E948B
S11324F06903CD9B8CC080919401811135C080917A
S11325003A0181110AC01092940110923A0181E0BB
S1132510809319010E945B0383C0813021F482E01F
S1132520809319017DC0823009F07AC00E94500F57
S11325308823A1F00E949F0F811106C00E94970179
S113254082E0809319016CC00E94EA021092940107
S113255010923A0183E08093190162C00E9408023C
S113256082E0809319015CC0813021F482E0809381
S1132570190156C0823009F053C080913A0181118B
S11325801EC00E949F0F811106C00E94970182E025
S11325908093190145C00E94500F882351F00E9476
S11325A079021092940110923A0183E08093190108
S11325B037C00E94080282E08093190131C0813043
S11325C021F482E0809319012BC0823049F50E94E6
S11325D09F0F811106C00E94970182E08093190128
S11325E01FC00E94500F882361F00E9479020E944C
S11325F0EA021092940110923A0183E08093190147
S11326000FC00E94080282E08093190109C0109251
S1132610940110923A0181E0809319010E945B03B6
S113262080911801873109F0B0CD80E180931901C0
S11326300E946903AACD80911901833009F0AFC0CB
S11326400E94191A1F930F9381EC90E09F938F932C
S11326500E946B1A0F900F900F900F90F701858DC9
S1132660968D892B79F08FE691E09F938F9380EB81
S113267090E09F938F930E946B1A0F900F900F908E
S11326800F900EC08FE691E09F938F938CEB90E0B8
S11326909F938F930E946B1A0F900F900F900F903F
S11326A00E94201A80915A01813071F48DE491E0E6
S11326B09F938F938DED90E09F938F930E946B1A5D
S11326C00F900F900F900F908091B001813071F4B2
S11326D083EA91E09F938F938DED90E09F938F9386
S11326E00E946B1A0F900F900F900F900E94191A6E
S11326F0CD9907C081E0809319010E945B030E9479
S11327006903CD9B3CC080915A01811118C080910E
S1132710B001811106C081E0809319010E945B031E
S113272033C0813021F483E0809319012DC08230BD
S113273059F581E0809319010E945B0325C0813023
S113274021F483E0809319011FC08230E9F4809161
S1132750B001811106C081E0809319010E945B03DE
S113276013C0813021F483E0809319010DC08230BD
S113277059F481E0809319010E945B0305C081E054
S1132780809319010E945B0380911801873109F03D
S1132790FCCC80E1809319010E946903F6CC8091FE
S11327A01901803109F041C00E94191A84E792E0AE
S11327B09F938F930E94811A0E94201A83E692E0CD
S11327C09F938F930E94811A0E94191A8091180175
S11327D00F900F900F900F90873131F483E1809325
S11327E019010E946903D1CC809118018F3031F412
S11327F082E1809319010E946903C7CC809118017A
S11328008D3131F481E1809319010E946903BDCCBB
S1132810809118018B3109F0B8CC81E080931901C3
S11328200E945B030E946903B0CC8091190182313C
S113283009F043C00E94191A82E592E09F938F9396
S11328400E94811A0E94201A81E492E09F938F9340
S11328500E94811A0E94191A809118010F900F90FA
S11328600F900F90873141F481E0809319010E9409
S11328705B030E94690389CC809118018F3031F485
S113288081E1809319010E9469037FCC8091180132
S11328908D3131F480E1809319010E94690375CC74
S11328A0809118018B3109F070CC81E0809319017B
S11328B00E945B030E94690368CC809119018131F5
S11328C009F041C00E94191A80E392E09F938F930C
S11328D00E94811A0E94201A8FE192E09F938F93A5
S11328E00E94811A0E94191A809118010F900F906A
S11328F00F900F90873131F483E2809319010E9485
S1132900690343CC809118018F3031F480E18093C6
S113291019010E94690339CC809118018D3131F479
S113292082E1809319010E9469032FCC80911801E0
S11329308B3109F02ACC81E0809319010E945B035A
S11329400E94690322CC80911901833109F047C0A8
S11329500E94191A8EE092E09F938F930E94811A2D
S11329600E94201A8DEF91E09F938F930E94811A09
S11329700E94191A809118010F900F900F900F90D8
S1132980873171F48AE1809319010E94A5031092A2
S11329901A0180911A010E947D040E946903F5CBFB
S11329A0809118018F3031F488E1809319010E94DD
S11329B06903EBCB809118018D3131F484E180936C
S11329C019010E946903E1CB809118018B3109F050
S11329D0DCCB80E1809319010E946903D6CB8091FE
S11329E01901843109F047C00E94191A8CEE91E054
S11329F09F938F930E94811A0E94201A8BED91E07D
S1132A009F938F930E94811A0E94191A8091180132
S1132A100F900F900F900F90873171F48CE1809399
S1132A2019010E94DF0310921A0180911A010E9479
S1132A307D040E946903A9CB809118018F3031F481
S1132A4083E1809319010E9469039FCB809118014F
S1132A508D3131F485E1809319010E94690395CB8E
S1132A60809118018B3109F090CB80E1809319019A
S1132A700E9469038ACB80911901853109F04FC006
S1132A800E94191A8AEC91E09F938F930E94811AF5
S1132A900E94201A89EB91E09F938F930E94811AE0
S1132AA00E94191A809118010F900F900F900F90A7
S1132AB08731B1F48EE1809319010E9477038091EC
S1132AC09501811103C010921A0103C08AE080931A
S1132AD01A0180911A010E947D040E94690355CB5A
S1132AE0809118018F3031F484E1809319010E94A0
S1132AF069034BCB809118018D3131F486E18093C9
S1132B0019010E94690341CB809118018B3109F0AE
S1132B103CCB80E1809319010E94690336CB8091FC
S1132B201901863109F055C00E94191ADF92CF921B
S1132B300E94811A0E94201A87E991E09F938F9343
S1132B400E94811A0E94191A809118010F900F9007
S1132B500F900F908731F1F480913D01882371F03B
S1132B608FE1809319010E94190410921A01809137
S1132B701A010E947D040E94690307CB0E94BE0EC5
S1132B80FFEF23ED30E3F15020403040E1F700C087
S1132B900000FBCA809118018F3031F485E18093E5
S1132BA019010E946903F1CA809118018D3131F431
S1132BB087E1809319010E946903E7CA8091180193
S1132BC08B3109F0E2CA80E1809319010E94690304
S1132BD0DCCA80911901873109F053C00E94191A87
S1132BE0BF92AF920E94811A0E94201A9F928F92E4
S1132BF00E94811A0E94191A809118010F900F9057
S1132C000F900F908731F1F4F7018081882371F0E0
S1132C1080E2809319010E94360410921A01809177
S1132C201A010E947D040E946903AFCA0E94BE0E6D
S1132C30FFEF23ED30E3F15020403040E1F700C0D6
S1132C400000A3CA809118018F3031F486E180938B
S1132C5019010E94690399CA809118018D3131F4D8
S1132C6088E1809319010E9469038FCA8091180139
S1132C708B3109F08ACA80E1809319010E946903AB
S1132C8084CA80911901883109F053C00E94191A2D
S1132C907F926F920E94811A0E94201A5F924F9233
S1132CA00E94811A0E94191A809118010F900F90A6
S1132CB00F900F908731F1F4F7018181882371F02F
S1132CC081E2809319010E94530410921A018091A9
S1132CD01A010E947D040E94690357CA0E94BE0E15
S1132CE0FFEF23ED30E3F15020403040E1F700C026
S1132CF000004BCA809118018F3031F487E1809332
S1132D0019010E94690341CA809118018D3131F47F
S1132D1083E1809319010E94690337CA80911801E5
S1132D208B3109F032CA80E1809319010E94690352
S1132D302CCA809119018A3121F58AE791E00E9419
S1132D40A109813031F483E1809319010E94D204F6
S1132D501CCA823061F48BE18093190110921A012C
S1132D600E94C20380911A010E947D040ECA83301E
S1132D7009F00BCA0E94A50380911A010E947D04E8
S1132D8004CA809119018B3159F580E491E00E94C5
S1132D90A109813069F48AE1809319010E94A50395
S1132DA084E080931A0180911A010E947D04EDC988
S1132DB0823061F48AE1809319010E94A503109284
S1132DC01A0180911A010E947D04DFC9833009F041
S1132DD0DCC90E94C20380911A010E947D04D5C9F6
S1132DE0809119018C3121F580E291E00E94A109C2
S1132DF0813031F484E1809319010E94D204C5C961
S1132E00823061F48DE1809319010E94FC031092D9
S1132E101A0180911A010E947D04B7C9833009F018
S1132E20B4C90E94DF0380911A010E947D04ADC9D8
S1132E30809119018D3159F586E991E00E94A1092B
S1132E40813069F48CE1809319010E94DF0384E0EE
S1132E5080931A0180911A010E947D0496C98230E0
S1132E6061F48CE1809319010E94DF0310921A012E
S1132E7080911A010E947D0488C9833009F085C9B4
S1132E800E94FC0380911A010E947D047EC98091F6
S1132E9019018E3109F05EC080911801873171F4F7
S1132EA080911A01811103C08AE080931A010E9463
S1132EB0770380911A010E947D0467C980911801EB
S1132EC08F3009F462C9809118018D3139F58091F0
S1132ED01A01811102C01092950180911A018A3061
S1132EE019F481E0809395010E94D9040E94ED06B3
S1132EF00E94D2040E948E03A8958FEF93EDE0E325
S1132F0081509040E040E1F700C00000A8950E9485
S1132F10770380911A010E947D0437C980911801BA
S1132F208B3109F032C980911A01811105C085E104
S1132F30809319010E94D20480911A018A3009F009
S1132F4024C910921A010E94770380911A010E94E9
S1132F507D041BC9809119018F3121F581EB91E02A
S1132F600E94720A813031F486E1809319010E9433
S1132F70D2040BC9823061F48FE1809319010E945D
S1132F80190410921A0180911A010E947D04FDC84F
S1132F90833009F0FAC80E94190480911A010E9432
S1132FA07D04F3C880911901803209F586E691E029
S1132FB00E94720A813031F487E1809319010E94E2
S1132FC0D204E3C8823049F40E94360410921A01F4
S1132FD080911A010E947D04D8C8833009F0D5C8B5
S1132FE00E94360480911A010E947D04CEC880910B
S1132FF019018132F9F48DE591E00E94720A813061
S113300021F488E180931901C0C8823049F40E94F8
S1133010530410921A0180911A010E947D04B5C8CC
S1133020833009F0B2C80E94530480911A010E94AF
S11330307D04ABC880911901833209F047C00E9416
S1133040191A27E830E03F932F930E94811A0E94B7
S1133050201AE6E7F0E0FF93EF930E94811A0E94A2
S1133060191A809118010F900F900F900F908731CB
S113307041F481E0809319010E945B030E9469037B
S113308084C8809118018F3041F481E08093190144
S11330900E945B030E94690378C8809118018D31F6
S11330A041F481E0809319010E945B030E9469034B
S11330B06CC8809118018B3109F067C881E0809356
S11330C019010E945B030E9469035FC88091190182
S11330D0843209F0D4C00E94191A1F930F933F92AF
S11330E02F920E946B1A0E94201A80916E001F92E8
S11330F08F9380913C018F9380913B018F9388EF54
S113310090E09F938F930E946B1A809118012DB7C2
S11331103EB7265F3F4F0FB6F8943EBF0FBE2DBF9C
S11331208731D9F40E94D9040E94ED060E94D2048A
S11331300E948E03A8953FEF83ED90E331508040C9
S11331409040E1F700C00000A89581E08093190148
S11331500E945B030E94690318C8809118018F3094
S1133160D9F580916E00813051F480913B019091AA
S11331703C01019690933C0180933B011CC08A3032
S113318051F480913B0190913C010A9690933C014B
S113319080933B0110C0843659F480913B01909197
S11331A03C018C599F4F90933C0180933B0103C099
S11331B081E080936E0080913B0190913C01813DC0
S11331C0974030F020ED37E030933C0120933B01F1
S11331D00E9469030C94C510809118018D3171F51A
S11331E080913B0190913C01009721F120916E0068
S11331F0213031F4019790933C0180933B011AC034
S11332002A3049F48A309105A8F00A9790933C013A
S113321080933B010FC0243651F48436910550F05D
S11332208456910990933C0180933B0103C081E053
S113323080936E000E9469030C94C510809118015C
S11332408B3111F00C94C51080916E00813021F403
S11332508AE080936E000FC08A3021F484E6809364
S11332606E0009C0843621F481E080936E0003C0AF
S113327081E080936E000E9469030C94C51081E084
S1133280809319010E945B030C94C51081E0809324
S113329019010E945B030C94921090910F019923E1
S11332A011F40C9428118FE10C943911C4986623FD
S11332B011F0C69A01C0C69898B3907F8F70892B7D
S11332C088BBC59A82E08A95F1F700C0C598089535
S11332D0C49A97B3907F97BB882311F0C69A01C014
S11332E0C698C59A82E08A95F1F700C086B3C5985E
S11332F097B39F6097BBC4988F700895CF93DF9363
S1133300C82FD62F82958F700E9456196D2F8C2F3F
S11333108F700E945619DF91CF910895CF93DF9358
S1133320C82F0E946819D82FD295D07F8C2F0E9465
S113333068198D2BDF91CF91089580E00E948E193A
S11333408823DCF308958FE787BB8FE59AEE019716
S1133350F1F700C0000060E083E00E9456198FE09E
S113336090E40197F1F700C0000060E083E00E9460
S113337056198FE891E00197F1F700C0000060E072
S113338083E00E94561960E082E00E9456190E9470
S11333909D1960E088E20E947E190E949D1960E0F8
S11333A088E00E947E190E949D1908950E94A31925
S11333B060E081E00E947E190E949D1960E086E031
S11333C00E947E190E949D1960E08EE00E947E1981
S11333D00E949D190895CF9390911F01992329F07C
S11333E08A3029F010921F0106C08A3021F481E04E
S11333F080931F0107C0C82F0E949D1961E08C2F84
S11334000E947E1980E090E0CF9108950E949D195A
S113341060E081E00E947E190E949D1960E082E0D4
S11334200E947E190E949D1960E080E80E947E1926
S113343008950E949D1960E080E80E947E19089515
S11334400E949D1960E080EC0E947E190895A1E21B
S11334501A2EAA1BBB1BFD010DC0AA1FBB1FEE1F0A
S1133460FF1FA217B307E407F50720F0A21BB30B55
S1133470E40BF50B661F771F881F991F1A9469F7D1
S113348060957095809590959B01AC01BD01CF012D
S11334900895A29FB001B39FC001A39F700D811D29
S11334A01124911DB29F700D811D1124911D089549
S11334B00E94491AA59F900DB49F900DA49F800D62
S11334C0911D11240895B7FF0C94581A0E94581A9C
S11334D0821B930B0895A0E0B0E0E1E7FAE10C94BD
S11334E0861DAE014B5F5F4FFA0161917191AF018F
S11334F08091C8019091C9010E94A71AE2E00C943E
S1133500A21DA0E0B0E0E7E8FAE10C94841DAE014E
S1133510495F5F4FDA016D917D91AD0106EC11E0D9
S1133520F80182819381DC0113962C911397286012
S113353013962C930E94A71AD8011296ED91FC9130
S113354013972381277F2383E4E00C94A01DABE031
S1133550B0E0EDEAFAE10C94761D6C017B018A017E
S1133560FC0117821682838181FFCCC1CE010196B2
S11335703C01F6019381F70193FD859193FF8191BD
S11335807F01882309F4BAC1853239F493FD85910A
S113359093FF81917F01853229F4B60190E00E9466
S11335A09E1CE7CF912C212C312CFFE1F315D8F090
S11335B08B3279F038F4803279F08332A1F4232D00
S11335C020611DC08D3261F0803369F4232D2160A8
S11335D016C0832D8260382EE32DE4603E2E2AC06F
S11335E0F32DF8601DC037FC2DC020ED280F2A30C4
S11335F040F08E32B9F436FC81C1232D2064322E82
S113360019C036FE06C08AE0989E200D1124922E21
S113361011C0EAE02E9E200D1124222EF32DF0621B
S11336203F2E08C08C3621F4832D8068382E02C0CA
S1133630883641F4F70193FD859193FF81917F01D1
S11336408111B3CF982F9F7D9554933028F40C5F4C
S11336501F4F9FE399830DC0833631F0833771F098
S1133660833509F059C021C0F801808189830E5F38
S11336701F4F88248394912C530113C02801F2E036
S11336804F0E511CF801A080B18036FE03C0692D95
S113369070E002C06FEF7FEFC5010E94931C4C01E4
S11336A08201F32DFF773F2E16C0280122E0420E3F
S11336B0511CF801A080B18036FE03C0692D70E072
S11336C002C06FEF7FEFC5010E94881C4C01F32DEF
S11336D0F0683F2E820133FC1BC0822D90E08816D7
S11336E09906B0F4B60180E290E00E949E1C2A94F0
S11336F0F4CFF50137FC859137FE81915F01B60166
S113370090E00E949E1C21102A9421E0821A9108C4
S11337108114910471F7E8C0843611F0893641F5BB
S1133720F80137FE07C060817181828193810C5F4B
S11337301F4F08C060817181072E000C880B990B04
S11337400E5F1F4FF32DFF763F2E97FF09C0909514
S11337508095709561957F4F8F4F9F4FF0683F2EF6
S11337602AE030E0A3010E94DA1C882E861845C0A6
S1133770853731F4232D2F7EB22E2AE030E025C088
S1133780932D997FB92E8F36C1F018F4883579F0CE
S1133790B5C0803719F0883721F0B0C0E92FE06157
S11337A0BE2EB4FE0DC0FB2DF460BF2E09C034FE46
S11337B00AC0292F2660B22E06C028E030E005C0DA
S11337C020E130E002C020E132E0F801B7FE07C09A
S11337D060817181828193810C5F1F4F06C060817B
S11337E0718180E090E00E5F1F4FA3010E94DA1CFC
S11337F0882E8618FB2DFF773F2E36FE0DC0232D15
S11338002E7FA22E891458F434FE0BC032FC09C05A
S1133810832D8E7EA82E05C0B82CA32C03C0B82CF3
S113382001C0B92CA4FE0FC0FE01E80DF11D80817A
S1133830803321F49A2D997EA92E09C0A2FE06C0D8
S1133840B394B39404C08A2D867809F0B394A3FC8E
S113385011C0A0FE06C0B21488F4280C922C9B1848
S11338600EC0B21460F4B60180E290E00E949E1C87
S1133870B394F7CFB21418F42B1802C0982C212C4F
S1133880A4FE10C0B60180E390E00E949E1CA2FE3C
S113389017C0A1FC03C088E790E002C088E590E06F
S11338A0B6010CC08A2D867859F0A1FE02C08BE2C5
S11338B001C080E2A7FC8DE2B60190E00E949E1C4C
S11338C0891438F4B60180E390E00E949E1C9A9417
S11338D0F7CF8A94F301E80DF11D8081B60190E0E1
S11338E00E949E1C8110F5CF222009F442CEB6011D
S11338F080E290E00E949E1C2A94F6CFF601868115
S1133900978102C08FEF9FEF2B96E2E10C94921DFA
S1133910FC010590615070400110D8F78095909596
S11339208E0F9F1F0895FC0161507040019001109B
S1133930D8F7809590958E0F9F1F08950F931F932E
S1133940CF93DF93FB01238121FD03C08FEF9FEF12
S11339502CC022FF16C0468157812481358142172D
S1133960530744F4A081B1819D012F5F3F4F318300
S113397020838C93268137812F5F3F4F37832683A3
S113398014C08B01EC01FB010084F185E02D099545
S1133990892BE1F6D80116968D919C911797019683
S11339A017969C938E931697CE01DF91CF911F911A
S11339B00F910895FA01AA27283051F1203181F19D
S11339C0E8946F936E7F6E5F7F4F8F4F9F4FAF4F23
S11339D0B1E03ED0B4E03CD0670F781F891F9A1F36
S11339E0A11D680F791F8A1F911DA11D6A0F711DEA
S11339F0811D911DA11D20D009F468943F912AE0F6
S1133A00269F11243019305D3193DEF6CF010895DD
S1133A10462F4770405D4193B3E00FD0C9F7F6CF0E
S1133A20462F4F70405D4A3318F0495D31FD4052D6
S1133A30419302D0A9F7EACFB4E0A695979587956C
S1133A4077956795BA95C9F700976105710508954B
S1133A509B01AC010A2E06945795479537952795F7
S1133A60BA95C9F7620F731F841F951FA01D08958F
S1133A70E199FECF9FBB8EBBE09A99278DB3089541
S1133A80A6E1B0E044E050E00C94681DA8E1B0E089
S1133A9042E050E00C94681D262FE199FECF9FBBB5
S1133AA08EBB2DBB0FB6F894E29AE19A0FBE019635
S1133AB00895242F0E944D1D252F0E944D1D0C9406
S1133AC0611D0E944C1D272F0C944D1DDC01CB0160
S1133AD0FC01E199FECF06C0FFBBEEBBE09A319634
S1133AE00DB20D9241505040B8F708952F923F9275
S1133AF04F925F926F927F928F929F92AF92BF92FA
S1133B00CF92DF92EF92FF920F931F93CF93DF93A5
S1133B10CDB7DEB7CA1BDB0B0FB6F894DEBF0FBE02
S1133B20CDBF09942A88398848885F846E847D844F
S1133B308C849B84AA84B984C884DF80EE80FD8051
S1133B400C811B81AA81B981CE0FD11D0FB6F894C7
S1113B50DEBF0FBECDBFED010895F894FFCF88
S1133B5E0000000200000000EB1900000000012527
S1133B6E2E357320202020205361766520202000DE
S1133B7E25732020202020205361766520200025E7
S1133B8E7320202020536176652020004143204F6E
S1133B9E4646202025732000257320762020200001
S1133BAE2D257320004143204F4E202020257320C5
S1133BBE004261743A257320002D2573002025736D
S1133BCE00576F726B696E673A25732000526573E6
S1133BDE74696E673A257320004261747465727954
S1133BEE3A20257320202000436F6566662E203A06
S10F3BFE25302E34752025302E33750040
S9030000FC
