S0220000636F6E74726F6C5F6261745F74656D705F4D31365F76312E32302E73726563AD
S11300000C94DC010C94F9010C94F9010C94F901A1
S11300100C946E0E0C94F9010C94F9010C94F901F2
S11300200C94F9010C94F9010C94F9010C94F90164
S11300300C94F9010C94F9010C94F9010C94F90154
S11300400C94F9010C94F9010C94F9010C94F90144
S11300500C94F90120202020202020202020202082
S11300602020202000202020202053746F726564FB
S1130070202020202000202020202020202020209C
S1130080202020202020004D616E75616C6C792049
S1130090537461727465640054656D702E206869D0
S11300A06768206C696D69740020204C6F7720208C
S11300B03E2020486967687420005761726E696E3B
S11300C06720736574706F696E740054656D702E6B
S11300D0206C6F77206C696D697420004261742E06
S11300E0206C6F776572206C696D6974005065725D
S11300F06B696E7320202059616E6D617200204718
S1130100656E657261746F72205479706520002089
S113011052657374696E672054696D6520202000F0
S113012020576F726B696E672054696D65202020BB
S1130130002052657374696E672054696D652020D0
S1130140200020576F726B696E672054696D6520BB
S11301502020003C2D65786974202020656E74652C
S1130160722D3E0020456E61626C652F4469736197
S1130170626C6520003C2D65786974202020656ED2
S11301807465722D3E0048696768742074656D70EB
S1130190657261742E20003C2D65786974202020DE
S11301A0656E7465722D3E004C6F77202074656D0A
S11301B07065726174757265003C2D657869742090
S11301C02020656E7465722D3E0042617474657200
S11301D07920766F6C7461676520003C2D657869C1
S11301E074202020656E7465722D3E002020204707
S11301F0656E657261746F7220202020003C2D654D
S1130200786974202020656E7465722D3E00205438
S1130210656D7065722E2054696D65722020003CF6
S11302202D65786974202020656E7465722D3E00FA
S113023020566F6C746167652054696D6572202067
S1130240003C2D65786974202020656E7465722DDC
S11302503E0020204D414E55414C205354415254B0
S11302602020003C2D65786974202020656E74651B
S1130270722D3E0020202020434F4E54524F4C20DC
S113028020202020003C2D65786974202020656E94
S11302907465722D3E0020202020534554494E475A
S11302A0532020202020002020205665722E20304C
S11302B0312E32302020200020206774732D656C8D
S11302C02E636F6D202020200047545320454C4559
S11302D04354524F4E494353200020202020646948
S11302E07361626C6564212020200020202020534B
S11302F06574706F696E7420202020002020707255
S113030065737320646F776E2020202000202053B3
S1130310617665206368616E676573202000202024
S11303202044697361626C656420202020200020D1
S11303302020456E61626C6564202020202020000E
S1130340536574702E2074656D702E20686967681B
S11303500020202044697361626C656420202020A1
S11303602000202020456E61626C656420202020DE
S1130370202000536574702E2074656D702E206CDF
S11303806F77200020202044697361626C656420CB
S11303902020202000202020456E61626C656420AE
S11303A0202020202000536574702E206261742E5A
S11303B020766F6C742E000011241FBECFE5D4E0AC
S11303C0DEBFCDBF11E0A0E6B0E0EEEAFEE302C07E
S11303D005900D92AC30B107D9F721E0ACE0B1E063
S11303E001C01D92AC3CB207E1F70E945B100C9473
S11303F0551F0C94000080915A01813031F081E046
S11304009091B001913009F080E008950F931F930B
S1130410EAE7F1E020812F7030E0A0EABCE80E9416
S1130420F11B21812F70A0E1BEE02A9FA0012B9F28
S1130430500D11248A01550F220B330BDC01CB0123
S1130440800F911FA21FB31F23812F7068E572E0F4
S1130450269FA001279F500D1124052E000C660B2A
S1130460770B840F951FA61FB71F44814F702CE391
S1130470429FA0011124052E000C660B770B840FFC
S1130480951FA61FB71F26812F7030E0A901440FC6
S1130490551F220F331F220F331F220F331F420F0A
S11304A0531F052E000C660B770B840F951FA61F98
S11304B0B71F27812F70820F911DA11DB11D818748
S11304C09287A387B48780E3858786879AE3978793
S11304D0808B818B928B838B848B158A168A178AE7
S11304E0108E118E81E0828F1F910F9108950F93CA
S11304F01F93E0E2F1E020812F7030E0A0EABCE835
S11305000E94F11B21812F70A0E1BEE02A9FA0016F
S11305102B9F500D11248A01550F220B330BDC0144
S1130520CB01800F911FA21FB31F23812F7068E599
S113053072E0269FA001279F500D1124052E000C68
S1130540660B770B840F951FA61FB71F44814F704E
S11305502CE3429FA0011124052E000C660B770B9F
S1130560840F951FA61FB71F26812F7030E0A901A5
S1130570440F551F220F331F220F331F220F331F27
S1130580420F531F052E000C660B770B840F951F2B
S1130590A61FB71F27812F70820F911DA11DB11DAA
S11305A081879287A387B48780E3858786879AE3C8
S11305B09787808B818B928B838B848B158A168A89
S11305C0178A108E118E81E0828F1F910F910895EA
S11305D00F931F93E0E4F1E020812F7030E0A0EA54
S11305E0BCE80E94F11B21812F70A0E1BEE02A9F8C
S11305F0A0012B9F500D11248A01550F220B330BA0
S1130600DC01CB01800F911FA21FB31F23812F7028
S113061068E572E0269FA001279F500D1124052E46
S1130620000C660B770B840F951FA61FB71F448120
S11306304F702CE3429FA0011124052E000C660B81
S1130640770B840F951FA61FB71F26812F7030E0EC
S1130650A901440F551F220F331F220F331F220FEE
S1130660331F420F531F052E000C660B770B840FAC
S1130670951FA61FB71F27812F70820F911DA11DE3
S1130680B11D81879287A387B48780E38587868796
S11306909AE39787808B818B928B838B848B158ACB
S11306A0168A178A108E118E81E0828F1F910F9106
S11306B008950F931F93E6E9F1E020812F7030E055
S11306C0A0EABCE80E94F11B21812F70A0E1BEE0EA
S11306D02A9FA0012B9F500D11248A01550F220B34
S11306E0330BDC01CB01800F911FA21FB31F2381A9
S11306F02F7068E572E0269FA001279F500D1124FA
S1130700052E000C660B770B840F951FA61FB71FD1
S113071044814F702CE3429FA0011124052E000C4C
S1130720660B770B840F951FA61FB71F26812F70AA
S113073030E0A901440F551F220F331F220F331F2E
S1130740220F331F420F531F052E000C660B770B2D
S1130750840F951FA61FB71F27812F70820F911D2D
S1130760A11DB11D81879287A387B48780E3858704
S113077086879AE39787808B818B928B838B848B7C
S1130780158A168A178A108E118E81E0828F1F9126
S11307900F910895E8EBF1E080E3808381839AE38D
S11307A092838383848395838683878310860895C5
S11307B02FEF89E698E1215080409040E1F700C096
S11307C00000A8958FE18093180108950E94C11B31
S11307D08EEF90E09F938F930E94291C0E94C81B68
S11307E08DEE90E09F938F930E94291C0F900F90A1
S11307F00F900F9008950E94C11B85E690E09F938F
S11308008F930E94291C0E94C81B84E590E09F934B
S11308108F930E94291C0F900F900F900F900895B2
S11308200E94C11B82E491E09F938F930E94291C34
S11308300E94C81B8AE791E09F938F938FE690E014
S11308409F938F930E94131C0F900F900F900F9003
S11308500F900F9008950E94C11B81E391E09F9334
S11308608F930E94291C0E94C81B80E491E09F93EF
S11308708F938FE690E09F938F930E94131C0F90A9
S11308800F900F900F900F900F9008950E94C11B2E
S113089080E291E09F938F930E94291C0E94C81BC1
S11308A080E291E09F938F938FE690E09F938F93E4
S11308B00E94131C0F900F900F900F900F900F90A9
S11308C008950E94C11B8FE091E09F938F930E9433
S11308D0291C0E94C81B86E991E09F938F938FE6A1
S11308E090E09F938F930E94131C0F900F900F9092
S11308F00F900F900F9008950E94C11B8CED90E013
S11309009F938F930E94291C0E94C81B81EB91E046
S11309109F938F9380E890E09F938F930E94131C82
S11309200F900F900F900F900F900F9008950E94CA
S1130930C11B8BEC90E09F938F930E94291C0E9413
S1130940C81B86E691E09F938F938FE890E09F9376
S11309508F930E94131C0F900F900F900F900F9085
S11309600F9008950E94C11B88E990E09F938F9394
S11309700E94291C0E94C81B8DE591E09F938F93D0
S11309808FE890E09F938F930E94131C0F900F9019
S11309900F900F900F900F9008950E94451B60E0F8
S11309A080EC0E94261B0E94451B60E08FE00E94A1
S11309B0261B0895811103C00E94CD04089581303F
S11309C069F40E94451B60E081EC0E94261B0E9492
S11309D0451B60E08FE00E94261B0895823069F475
S11309E00E94451B60E082EC0E94261B0E94451B6E
S11309F060E08FE00E94261B0895833069F40E9412
S1130A00451B60E083EC0E94261B0E94451B60E0AE
S1130A108FE00E94261B0895843069F40E94451BD0
S1130A2060E084EC0E94261B0E94451B60E08FE07E
S1130A300E94261B08958A3069F40E94451B60E0D9
S1130A408AEC0E94261B0E94451B60E08FE00E94F6
S1130A50261B089510921A010E94CD0408950E9445
S1130A60451B60E08EE00E94261B08958F929F92A2
S1130A70AF92BF92FF920F931F93CF93DF93A895EA
S1130A80EAE7F1E020812F7030E0A0EABCE80E94A0
S1130A90F11B21812F7000E11EE0209FA001219F06
S1130AA0500D11244A01550FAA08BB08AB01BC0123
S1130AB0480D591D6A1D7B1D23812F70C8E5D2E0A6
S1130AC02C9FC0012D9F900D1124092E000CAA0B00
S1130AD0BB0B480F591F6A1F7B1F84818F700F2E19
S1130AE0FCE3FF2EF02DF89EC0011124092E000C0A
S1130AF0AA0BBB0B480F591F6A1F7B1F26812F703F
S1130B0030E0C901880F991F220F331F220F331FB2
S1130B10220F331F820F931F092E000CAA0BBB0B4D
S1130B20480F591F6A1F7B1F87818F70480F511D03
S1130B30611D711D418752876387748788E190E046
S1130B400E94011FA895E0E4F1E020812F7030E0BD
S1130B50A0EABCE80E94F11B21812F70209FA00114
S1130B60219F500D11244A01550FAA08BB08AB015F
S1130B70BC01480D591D6A1D7B1D23812F702C9FBC
S1130B80C0012D9F900D1124092E000CAA0BBB0B44
S1130B90480F591F6A1F7B1F84818F70F89EC00104
S1130BA01124092E000CAA0BBB0B480F591F6A1FF6
S1130BB07B1F26812F7030E0C901880F991F220FF7
S1130BC0331F220F331F220F331F820F931F092E4F
S1130BD0000CAA0BBB0B480F591F6A1F7B1F878190
S1130BE08F70480F511D611D711D418752876387A6
S1130BF0748784E190E00E94011FA895E0E2F1E08F
S1130C0020812F7030E0A0EABCE80E94F11B218112
S1130C102F70209FA001219F500D11244A01550FD0
S1130C20AA08BB08AB01BC01480D591D6A1D7B1DF8
S1130C3023812F702C9FC0012D9F900D1124092E0C
S1130C40000CAA0BBB0B480F591F6A1F7B1F848122
S1130C508F70F89EC0011124092E000CAA0BBB0B47
S1130C60480F591F6A1F7B1F26812F7030E0C9016E
S1130C70880F991F220F331F220F331F220F331F98
S1130C80820F931F092E000CAA0BBB0B480F591F90
S1130C906A1F7B1F87818F70480F511D611D711D55
S1130CA0418752876387748780E190E00E94011F27
S1130CB0A895E6E9F1E020812F7030E0A0EABCE8D5
S1130CC00E94F11B21812F70209FA001219F500DB4
S1130CD011248A01550F220B330BAB01BC01400FC9
S1130CE0511F621F731F23812F702C9FC0012D9FE2
S1130CF0900D1124092E000CAA0BBB0B480F591F91
S1130D006A1F7B1F84818F70F89EC0011124092EF5
S1130D10000CAA0BBB0B480F591F6A1F7B1F2681AF
S1130D202F7030E0C901880F991F220F331F220F43
S1130D30331F220F331F820F931F092E000CAA0B9F
S1130D40BB0B480F591F6A1F7B1F87818F70480F89
S1130D50511D611D711D41875287638774878CE023
S1130D6090E00E94011FA895E1EBF1E020812F7033
S1130D7014E681818F7090E0BC01660F771F880FA5
S1130D80991F880F991F880F991F680F791F129F49
S1130D90600D711D112483818F70680F711D709314
S1130DA0B7016093B6018AE090E00E94091FA895FC
S1130DB0CBE5D1E02B852F708C858F7090E0BC0142
S1130DC0660F771F880F991F880F991F880F991F27
S1130DD0680F791F129F600D711D11248E858F700D
S1130DE0680F711D7B8B6A8B88E090E00E94091F5D
S1130DF0A8952A812F708B818F7090E0BC01660FBB
S1130E00771F880F991F880F991F880F991F680FE4
S1130E10791F129F600D711D11248D818F70680FD1
S1130E20711D7A87698786E090E00E94091FA89562
S1130E3060913B0170913C0184E090E00E94091FA5
S1130E40A8956091950183E090E00E94F41E609162
S1130E503D0182E090E00E94F41E688181E090E010
S1130E600E94F41E698180E090E00E94F41EDF91EC
S1130E70CF911F910F91FF90BF90AF909F908F9053
S1130E8008953F924F925F926F927F928F929F92BA
S1130E90AF92BF92CF92DF92EF92FF920F931F9384
S1130EA0CF93DF93A89588E190E00E94E81E6B0140
S1130EB07C01CAE7D1E069877A878B879C870F2EEC
S1130EC0F0EA4F2EFCE85F2E612C712CF02DA3016B
S1130ED092010E94CF1B822F80638883A0EABCE822
S1130EE00E94001CC61AD70AE80AF90A0F2EF0E17C
S1130EF08F2EFEE09F2EA12CB12CF02DC701B60140
S1130F00A50194010E94CF1B822F806389830AE389
S1130F100A83A0E1BEE00E94001CC61AD70AE80AB0
S1130F20F90AC701B60128E532E040E050E00E942A
S1130F30CF1B822F80638B83A8E5B2E00E94001C44
S1130F40A7019601261B370B480B590BCA01B9019F
S1130F502CE330E040E050E00E94CF1B20632C8360
S1130F600D8310E31E831F831886A89584E190E007
S1130F700E94E81E6B017C01C0E4D1E069877A8796
S1130F808B879C87A30192010E94CF1B822F8063D1
S1130F908883A0EABCE80E94001CC61AD70AE80AA3
S1130FA0F90AC701B601A50194010E94CF1B822F43
S1130FB0806389830A83A0E1BEE00E94001CC61AF4
S1130FC0D70AE80AF90AC701B60128E532E040E089
S1130FD050E00E94CF1B822F80638B83A8E5B2E090
S1130FE00E94001CA7019601261B370B480B590BC6
S1130FF0CA01B9012CE330E040E050E00E94CF1B6D
S113100020632C830D831E831F831886A89580E19B
S113101090E00E94E81E6B017C01C0E2D1E0698788
S11310207A878B879C87A30192010E94CF1B822F12
S113103080638883A0EABCE80E94001CC61AD70A11
S1131040E80AF90AC701B601A50194010E94CF1B61
S1131050822F806389830A83A0E1BEE00E94001C82
S1131060C61AD70AE80AF90AC701B60128E532E028
S113107040E050E00E94CF1B822F80638B83A8E561
S1131080B2E00E94001CA7019601261B370B480BF7
S1131090590BCA01B9012CE330E040E050E00E9452
S11310A0CF1B20632C830D831E831F831886A89572
S11310B08CE090E00E94E81E6B017C01C6E9D1E05F
S11310C069877A878B879C87A30192010E94CF1B33
S11310D0822F80638883A0EABCE80E94001C26015A
S11310E03701461A570A680A790AC301B201A501F1
S11310F094010E94CF1B822F806389830A83A0E11D
S1131100BEE00E94001C461A570A680A790AC30105
S1131110B20128E532E040E050E00E94CF1B822F6C
S113112080638B83A8E5B2E00E94001CA3019201B6
S1131130261B370B480B590BCA01B9012CE330E0CD
S113114040E050E00E94CF1B20632C830D831E835C
S11311501F831886A8958AE090E00E94EE1E909363
S1131160B7018093B6016C01E12CF12C0F2EF4E64B
S11311704F2E512C612C712CF02DC701B601A30107
S113118092010E94CF1BC1EBD1E0822F8063888340
S1131190A4E6B0E00E94001CC61AD70AE80AF90ABD
S11311A00F2EFAE08F2E912CA12CB12CF02DC7011B
S11311B0B601A50194010E94CF1B822F806389830D
S11311C01EE21A83822F932FA42FB52F880F991F05
S11311D0AA1FBB1FAC01BD01440F551F661F771F1B
S11311E0440F551F661F771F840F951FA61FB71F37
S11311F0A7019601281B390B4A0B5B0BDA01C901C5
S113120080638B831C82A89588E090E00E94EE1E88
S1131210CBE5D1E09B8B8A8B6C01E12CF12CC701CF
S1131220B601A30192010E94CF1B822F80638B879A
S1131230A4E6B0E00E94001CC61AD70AE80AF90A1C
S1131240C701B601A50194010E94CF1B822F8063C0
S11312508C871D87822F932FA42FB52F880F991F5A
S1131260AA1FBB1FAC01BD01440F551F661F771F8A
S1131270440F551F661F771F840F951FA61FB71FA6
S1131280A7019601281B390B4A0B5B0BDA01C90134
S113129080638E870F2EFFED3F2EF02D3F8603E4F3
S11312A0088B198AA89586E090E00E94EE1E9A8722
S11312B089876C01E12CF12CC701B601A3019201CD
S11312C00E94CF1B822F80638A83A4E6B0E00E9431
S11312D0001CC61AD70AE80AF90AC701B601A50113
S11312E094010E94CF1B822F80638B831C83822FE7
S11312F0932FA42FB52F880F991FAA1FBB1FAC01D2
S1131300BD01440F551F661F771F440F551F661FED
S1131310771F840F951FA61FB71FA7019601281BCF
S1131320390B4A0B5B0BDA01C90180638D833E8262
S11313300F831886A89584E090E00E94EE1E909397
S11313403C0180933B01813D974070F060ED77E074
S113135084E090E00E94091F84E090E00E94EE1E69
S113136090933C0180933B01A89583E090E00E9418
S1131370E01E8093950182E090E00E94E01E80933D
S11313803D0181E090E00E94E01ECBE5D1E088833E
S113139080E090E00E94E01E8983A895DF91CF91C0
S11313A01F910F91FF90EF90DF90CF90BF90AF907F
S11313B09F908F907F906F905F904F903F90089593
S11313C020911801273129F580911A018F5F8093AC
S11313D01A0180911A018B3020F00E94D80382E018
S11313E0089580911A01823029F480911A018F5F47
S11313F080931A0180911A01853018F08AE0809355
S11314001A0180911A010E94DA040E94D80380E034
S11314100895209118012F30D1F520911A01FC0173
S1131420E20FF11D20812F5F208320911A012330C8
S113143079F420911A01FC01E20FF11D2081263379
S113144038F020911A01FC01E20FF11D25E32083FD
S113145020911A01222341F020911A01213021F018
S113146020911A01243079F420911A01FC01E20F31
S1131470F11D20812A3338F020911A01FC01E20F7A
S1131480F11D29E320830E94D80383E0089520916D
S113149018012D31D9F520911A01222361F02091F0
S11314A01A01213041F020911A01233021F02091BA
S11314B01A01243081F420911A01FC01E20FF11D7C
S11314C02081203341F020911A01FC01E20FF11D2B
S11314D080818150808380911A018A3099F40E941E
S11314E036050E9441070E942F050E94FB03A89520
S11314F02FEF83ED90E3215080409040E1F700C04E
S11315000000A8950E94D80383E0089580911801F3
S11315108B3129F580911A01811104C00E94D803EE
S113152081E0089580911A018A3021F484E0809347
S11315301A010DC080911A01833021F481E0809357
S11315401A0105C080911A01815080931A0180917B
S11315501A010E94DA040E94D80380E0089580E012
S1131560089520911801273119F580911A018F5F90
S113157080931A0180911A018B3020F00E94D803C5
S113158082E0089580911A01823019F483E08093F7
S11315901A0180911A01843018F08AE080931A01AC
S11315A080911A010E94DA040E94D80380E0089511
S11315B0209118012F30F9F420911A01FC01E20F57
S11315C0F11D20812F5F208320911A01243078F4AB
S11315D020911A01FC01E20FF11D20812A3338F019
S11315E020911A01FC01E20FF11D29E320830E94DE
S11315F0D80383E00895209118012D3109F0B3C078
S113160020911A01243080F420911A01FC01E20F88
S1131610F11D2081203341F020911A01FC01E20FD9
S1131620F11D80818150808380911A018A3009F0F4
S113163096C080911901803229F08091190181327C
S113164009F07AC0EBE5F1E023852F7074E6848518
S11316508F7090E0AC01440F551F880F991F880FBD
S1131660991F880F991F480F591F729F400D511DD4
S1131670112486858F70480F511D538B428B6281D4
S11316806F7023812F7030E0C901880F991F220FDA
S1131690331F220F331F220F331F820F931F769F96
S11316A0800D911D112425812F70820F911D928729
S11316B081874817590760F10E942F050E94C11BBA
S11316C08AEB90E09F938F930E94291C0E94C81B71
S11316D089EA90E09F938F930E94291CA8952FEF8D
S11316E083ED90E3215080409040E1F700C000007A
S11316F0A8952FEF89E698E1215080409040E1F7CA
S113170000C00000A8950F900F900F900F9027C075
S11317100E9436050E9441070E942F050E94FB0388
S1131720A8952FEF83ED90E3215080409040E1F79E
S113173000C00000A89513C00E9436050E9441070E
S11317400E942F050E94FB03A8952FEF83ED90E3E1
S1131750215080409040E1F700C00000A8950E940D
S1131760D80383E00895809118018B3129F5809185
S11317701A01811104C00E94D80381E00895809168
S11317801A018A3021F483E080931A010DC08091FC
S11317901A01833021F481E080931A0105C08091FD
S11317A01A01815080931A0180911A010E94DA046F
S11317B00E94D80380E0089580E00895DE98D69AC8
S11317C08FE797E00197F1F700C00000D698EFEE9D
S11317D0F0E03197F1F700C0000089B3EFE8F6E0DC
S11317E03197F1F700C0000080740895DE98D69A0E
S11317F095E09A95F1F700008111D6988FEE90E06C
S11318000197F1F700C00000D6980895DE98D69AA3
S113181085E08A95F1F70000D6989AE49A95F1F755
S113182000C089B390EF9A95F1F786FB882780F979
S11318300895CF93DF93D8E0C0E00E94060C20E81F
S1131840829FC0011124C695C82BD150B1F78C2FAB
S1131850DF91CF910895CF93DF93D82FC8E08D2FD8
S113186081700E94F60BD695C150C9F7DF91CF91D4
S113187008950F931F93CF93DF930E94DE0B0E9472
S1131880060C8823E1F30E94DE0B8CEC0E942B0CE7
S11318908EEB0E942B0C0E94190CC82F0E94190C6D
S11318A0D82F0E94DE0B8C2F90E0A0E0B0E09C01CA
S11318B0AD013D2BD87F09F44DC0CBE5D1E081E0EB
S11318C090E09E8F8D8F41505109AFE8BDEF0E948B
S11318D00E1C28EE33E040E050E00E94CF1B422F64
S11318E0E22FF32FFC8FEB8F9F01369527953695CA
S11318F02795ABE7B4E10E94F11B8C01169507957F
S11319009F0184E6089F201931091124ADECBCEC39
S11319100E94F11B96958795969587959695879540
S11319209EE29E8B9FED988F93E4998F1A8E902F51
S113193090639C8B982F90639D8B24E6029F4019A3
S11319401124880F982F990F990F890F481B406312
S11319504F8B68C0CBE5D1E01E8E1D8EA1E7B2E0AF
S11319600E94001C28EE33E040E050E00E94CF1BB0
S1131970E22F422F532F5C8F4B8F483E33E05307A7
S113198068F08EE38C8B81E38D8B80E38E8B8F8B61
S11319908FED888F83E4898F1A8E44C09A0136951F
S11319A0279536952795ABE7B4E10E94F11BEC012E
S11319B0D695C7959A0184E6C89F20193109112448
S11319C0ADECBCEC0E94F11B969587959695879596
S11319D096958795ABE5B1E09EE256969C93569713
S11319E09FED58969C93589793E459969C935997D6
S11319F05A961C925A979C2F906354969C93549792
S1131A00982F906355969C93559724E6C29FE019AE
S1131A101124880F982F990F990F890FE81BE06301
S1131A205796EC938CEC0E942B0C84E40E942B0CB4
S1131A3080915B01811111C080915C0181110DC005
S1131A40EBE5F1E08DE2848B858B9EE2968B878BB0
S1131A508FED808F83E4818F128EDF91CF911F9160
S1131A600F9108958091BF018F5F8A3318F480939A
S1131A70BF010895E8EBF1E080E3878386818F5FFF
S1131A80863318F48093BE010895E8EBF1E080E317
S1131A90868384818F5F8A3318F48093BC01089510
S1131AA0E8EBF1E080E3848383818F5F863318F46D
S1131AB08093BB010895E8EBF1E080E383838181A7
S1131AC08F5F8A3318F48093B9010895E8EBF1E04D
S1131AD080E3818380818F5F8A3318F48093B80117
S1131AE0089580E38093B8010895BF92CF92DF9266
S1131AF0EF92FF920F931F93CF93DF93FC0184899E
S1131B008F5F8A3310F4848B2AC080E3848B8389AB
S1131B108F5F863310F4838B22C080E3838B8189AB
S1131B208F5F8A3310F4818B1AC080E3818B8089A4
S1131B308F5F863310F4808B12C080E3808B8685A0
S1131B408F5F8A3310F486870AC080E38687858591
S1131B508F5F8A3310F4858702C080E385872585EB
S1131B602F7030E0A0EABCE80E94F11B26852F709C
S1131B70C0E1DEE02C9F60012D9FD00C11240D2CC0
S1131B80000CEE08FF08C60ED71EE81EF91E2089B9
S1131B902F7048E552E0249FC001259F900D112429
S1131BA0092E000CAA0BBB0BC80ED91EEA1EFB1E85
S1131BB081898F700F2EFCE3BF2EF02DB89EC001DB
S1131BC01124092E000CAA0BBB0BC80ED91EEA1E49
S1131BD0FB1E23892F7030E08901000F111F220F93
S1131BE0331F220F331F220F331F020F131F012E27
S1131BF0000C220B330BC00ED11EE21EF31E84898F
S1131C008F70C80ED11CE11CF11CC68AD78AE08EE5
S1131C10F18E20812F7030E0A0EABCE80E94F11B15
S1131C2021812F702C9FD0012D9FB00D11248D0187
S1131C30BB0F220B330BDC01CB01800F911FA21FC2
S1131C40B31F63816F70649F9001659F300D1124F1
S1131C50A901330F660B770B840F951FA61FB71FBF
S1131C6044814F70B49EA0011124052E000C660B14
S1131C70770B840F951FA61FB71F26812F7030E0A6
S1131C80A901440F551F220F331F220F331F220FA8
S1131C90331F420F531F052E000C660B770B840F66
S1131CA0951FA61FB71F27812F70820F911DA11D9D
S1131CB0B11D81879287A387B487C816D906EA061F
S1131CC0FB0610F082E0828FDF91CF911F910F917C
S1131CD0FF90EF90DF90CF90BF9008951F920F92E6
S1131CE00FB60F9211242F933F934F935F936F93EB
S1131CF07F938F939F93AF93BF93EF93FF938091C1
S1131D001B018F5F80931B0180911B01803F20F09A
S1131D10C79880EF80931B0180910E018F3F19F4C7
S1131D2010920E0105C010920E0181E080931E01F5
S1131D3080910D018F5F823018F480930D0105C0EE
S1131D4010920D0181E080931D01809194018130F6
S1131D5021F48AE791E00E94750D80915A01813047
S1131D6021F480E491E00E94750D80913A01813064
S1131D7021F480E291E00E94750D8091B0018130E0
S1131D8021F486E991E00E94750D8091190181305A
S1131D9011F40E94320DFF91EF91BF91AF919F9189
S1131DA08F917F916F915F914F913F912F910F9000
S1131DB00FBE0F901F9018950E94C11B86EA93E0F6
S1131DC09F938F930E94291C0E94C81B0F900F9011
S1131DD080913D01882349F085E993E09F938F9397
S1131DE00E94291C0F900F90089584E893E09F931C
S1131DF08F930E94291C0F900F9008950E94C11B7D
S1131E0083E793E09F938F930E94291C0E94C81B31
S1131E100F900F9080915B01882349F082E693E054
S1131E209F938F930E94291C0F900F90089581E532
S1131E3093E09F938F930E94291C0F900F90089515
S1131E400E94C11B80E493E09F938F930E94291CFE
S1131E500E94C81B0F900F9080915C01882349F069
S1131E608FE293E09F938F930E94291C0F900F9011
S1131E7008958EE193E09F938F930E94291C0F9005
S1131E800F9008950E94C11B8DE093E09F938F9360
S1131E900E94291C0E94C81B8CEF92E09F938F9391
S1131EA00E94291C0F900F900F900F9008950E948C
S1131EB0C11B8BEE92E09F938F930E94291C0E947A
S1131EC0C81B8AED92E09F938F930E94291C2FEFE9
S1131ED083ED90E3215080409040E1F700C0000082
S1131EE00F900F900F900F900895CF93DF938091F0
S1131EF03D01882309F46BC087EC87B980E190E049
S1131F0020E030E067E866B9369A3699FECF44B1EE
S1131F1055B1240F351F0197B1F7329522952F70D3
S1131F2023273F702327A0913B01B0913C010E94DD
S1131F30F11B28EE33E040E050E00E94CF1B273E27
S1131F4083E0380728F430933F0120933E0106C014
S1131F5087EE93E090933F0180933E0140913E01D0
S1131F6050913F019A013695279536952795ABE711
S1131F70B4E10E94F11BEC01D695C7959A0194E651
S1131F80C99F201931091124ADECBCEC0E94F11B4E
S1131F90969587959695879596958795E1ECF1E0CA
S1131FA09EE2928314829C2F90639083982F906377
S1131FB0918324E6C29F40191124880F982F990F0A
S1131FC0990F890F481B842F8063838309C0E1EC38
S1131FD0F1E08DE2808381839EE292838383148285
S1131FE0DF91CF91089580915B01811105C08091AB
S1131FF05C01811119C03CC08130E1F590915C0114
S1132000911121C02091780130917901213031055D
S113201099F1EBE5F1E0438D548D2289338924173E
S1132020350778F180E0089580915C01813031F5C5
S1132030EBE5F1E0438D548D21853285421753073A
S113204000F180E008959130E1F4EBE5F1E0238DB7
S1132050348D818592852817390790F481E0409169
S11320606D0150916E014217530758F080E00895B6
S113207081E0089581E00895892F089581E008950D
S113208080E0089580913D01882371F081E04091C2
S11320903E0150913F012091B6013091B7014217A2
S11320A0530718F480E0089581E0089587E689B91C
S11320B088E18AB90895A8959FE088E10FB6F8945D
S11320C0A89581BD0FBE91BD1ABA8FE18BBB80E884
S11320D087BB18BA8FE781BB12BA80E784BB15BAF5
S11320E00E9456100E947E1B20E405C0A89501970B
S11320F0E9F7215019F08FEF9FEFF8CFF89489B7E3
S11321008F7389BF82B5886082BD14BC85E085BDAC
S113211082B5877021F0A89582B58770E1F789B7F9
S1132120806489BF7894A89580E488B980EC87B9E5
S113213080E886B9A8950E944107A89589B38F7154
S113214080931C018B31A9F42FEF33EC89E02150EB
S113215030408040E1F700C00000A89589B38F713A
S11321608B3121F481E080931C0105C010921C0185
S113217002C010921C01E6ECF1E080E690E0958349
S1132180848393838283C79A0E94AE1B0E942F0587
S11321900E94C11B89EC92E09F938F930E94291C9B
S11321A00E94C81B88EB92E09F938F930E94291C86
S11321B0A8959FEFE3EDF0E39150E040F040E1F7A4
S11321C000C00000A8952FEF33ED80E3215030408C
S11321D08040E1F700C00000A8950E94C81B87EA70
S11321E092E09F938F930E94291C0E94C11B9FEF32
S11321F0E3EDF0E39150E040F040E1F700C000006F
S1132200A8950E94750F0E94390C2FEF33ED80E3DF
S1132210215030408040E1F700C00000A8950E94A2
S1132220750F0E94390C0F900F900F900F900F9024
S11322300F9080919501813011F4969A01C096987F
S113224080911C01813011F00C94EE1A89B38F71C6
S11322508B3139F481E080931C0187E2809319016A
S113226004C010921C010C94EE1A0E94D8030E9420
S1132270AE1B7894C0E1D1E001EC11E00F2EF9EE31
S11322802F2EF0E03F2EF02D0F2EFBE5EF2EF1E088
S1132290FF2EF02D0F2EF4E66F2EF1E07F2EF02DA1
S11322A00F2EF3E54F2EF1E05F2EF02D0F2EF6E802
S11322B0AF2EF1E0BF2EF02D0F2EF5E78F2EF1E0BB
S11322C09F2EF02D0F2EF8EACF2EF1E0DF2EF02D09
S11322D0A89580911E01813021F40E94750F1092FF
S11322E01E0180911D01813021F40E94390C10924D
S11322F01D0180911901823021F0809119018632EB
S113230041F480919501813011F4969809C0969A10
S113231007C080919501813011F4969A01C0969876
S1132320E0910C0189B3F0E0E05FFE4F8F71808390
S1132330E0910C01F0E0E05FFE4F80818F3119F0F5
S113234010921B01C79A80910C018F5F80930C013E
S113235080910C01883010F010920C0188819981D1
S113236089131DC09A8189131CC09B8189131BC0CA
S11323709C8189131AC09D81891319C09E81891378
S113238018C09F81891317C08F3111F00C94F51A6E
S113239010920F0111C091E090930F010DC08FE1D5
S11323A00BC08FE109C08FE107C08FE105C08FE149
S11323B003C08FE101C08FE180931801809119015E
S11323C0813009F0D3C0CD9B41C00E94C11B88EB72
S11323D091E09F938F938CE990E09F938F930E9459
S11323E0131C0E94C81B1F930F9388EA90E09F93CD
S11323F08F930E94131CEDB7FEB738960FB6F8946E
S1132400FEBF0FBEEDBFF701858D968D892B79F048
S11324108FE691E09F938F9380EB90E09F938F934F
S11324200E94131C0F900F900F900F9050C08FE6D6
S113243091E09F938F938CEB90E09F938F930E94F6
S1132440131C0F900F900F900F9041C00E94C11B5E
S113245088EB91E09F938F9385EB90E09F938F930C
S11324600E94131C0E94C81B1F930F9388EA90E0DC
S11324709F938F930E94131C2DB73EB7285F3F4F45
S11324800FB6F8943EBF0FBE2DBFF701858D968D14
S1132490892B79F08FE691E09F938F9380EB90E006
S11324A09F938F930E94131C0F900F900F900F9087
S11324B00EC08FE691E09F938F938CEB90E09F93F7
S11324C08F930E94131C0F900F900F900F90809188
S11324D01801873129F480E1809319010E94D803FF
S11324E080915A01823011F410925A018091B00106
S11324F0823011F41092B001CD9BEACE0E944210BA
S1132500811122C00E94F30F882371F00E94FB0105
S1132510882321F083E080931901DACE0E94060219
S113252082E080931901D4CE0E94FB01882321F01C
S113253083E080931901CCCE0E9406020E947702A8
S113254082E080931901C4CE0E94F30F8111C0CEA2
S11325500E94FB01882321F083E080931901B8CE07
S11325600E94770282E080931901B2CE8091190112
S1132570823009F001C10E94C11B1F930F9381ECAB
S113258090E09F938F930E94131C0F900F900F90D5
S11325900F90F701858D968D892B79F08FE691E068
S11325A09F938F9389EC90E09F938F930E94131CC9
S11325B00F900F900F900F900EC08FE691E09F93B5
S11325C08F938DEC90E09F938F930E94131C0F9038
S11325D00F900F900F900E94C81B8091940181303E
S11325E071F487E891E09F938F9381ED90E09F933E
S11325F08F930E94131C0F900F900F900F90809157
S11326003A01813071F48DE291E09F938F9381EDD3
S113261090E09F938F930E94131C0F900F900F9044
S11326200F90CD9907C081E0809319010E94CA03DD
S11326300E94D803CD9B8CC080919401811135C038
S113264080913A0181110AC01092940110923A01CA
S113265081E0809319010E94CA0383C0813021F470
S113266082E0809319017DC0823009F07AC00E9413
S1132670F30F8823A1F00E944210811106C00E942A
S1132680060282E0809319016CC00E9459031092E3
S1132690940110923A0183E08093190162C00E9470
S11326A0770282E0809319015CC0813021F482E0DA
S11326B08093190156C0823009F053C080913A01C9
S11326C081111EC00E944210811106C00E940602A0
S11326D082E08093190145C00E94F30F882351F0D2
S11326E00E94E8021092940110923A0183E08093D0
S11326F0190137C00E94770282E08093190131C02A
S1132700813021F482E0809319012BC0823049F595
S11327100E944210811106C00E94060282E080934A
S113272019011FC00E94F30F882361F00E94E80280
S11327300E9459031092940110923A0183E080930D
S113274019010FC00E94770282E08093190109C029
S11327501092940110923A0181E0809319010E9431
S1132760CA0380911801873109F0B2CD80E18093CA
S113277019010E94D803ACCD80911901833009F06E
S1132780ADC00E94C11B1F930F9381EC90E09F93F7
S11327908F930E94131C0F900F900F900F90F701CE
S11327A0858D968D892B79F08FE691E09F938F9399
S11327B080EB90E09F938F930E94131C0F900F90D7
S11327C00F900F900EC08FE691E09F938F938CEB48
S11327D090E09F938F930E94131C0F900F900F9083
S11327E00F900E94C81B80915A01813071F48DE4CE
S11327F091E09F938F938DED90E09F938F930E9430
S1132800131C0F900F900F900F908091B0018130A6
S113281071F483EA91E09F938F938DED90E09F9301
S11328208F930E94131C0F900F900F900F90CD99CF
S113283007C081E0809319010E94CA030E94D80353
S1132840CD9B3CC080915A01811118C08091B00188
S1132850811106C081E0809319010E94CA0333C02C
S1132860813021F483E0809319012DC0823059F521
S113287081E0809319010E94CA0325C0813021F4AC
S113288083E0809319011FC08230E9F48091B00184
S1132890811106C081E0809319010E94CA0313C00C
S11328A0813021F483E0809319010DC0823059F402
S11328B081E0809319010E94CA0305C081E08093DE
S11328C019010E94CA0380911801873109F000CDD3
S11328D080E1809319010E94D803FACC80911901F8
S11328E0803109F03FC00E94C11B86E992E09F93AA
S11328F08F930E94291C0E94C81B85E892E09F9335
S11329008F930E94291C809118010F900F900F90B3
S11329100F90873131F483E1809319010E94D80329
S1132920D7CC809118018F3031F482E18093190162
S11329300E94D803CDCC809118018D3131F481E10E
S1132940809319010E94D803C3CC809118018B3164
S113295009F0BECC81E0809319010E94CA030E9451
S1132960D803B6CC80911901823109F041C00E948C
S1132970C11B84E792E09F938F930E94291C0E94BD
S1132980C81B83E692E09F938F930E94291C809139
S113299018010F900F900F900F90873141F481E050
S11329A0809319010E94CA030E94D80391CC80919C
S11329B018018F3031F481E1809319010E94D8030A
S11329C087CC809118018D3131F480E18093190115
S11329D00E94D8037DCC809118018B3109F078CC0A
S11329E081E0809319010E94CA030E94D80370CC2D
S11329F080911901813109F03FC00E94C11B82E519
S1132A0092E09F938F930E94291C0E94C81B81E42B
S1132A1092E09F938F930E94291C809118010F903C
S1132A200F900F900F90873131F486E28093190153
S1132A300E94D8034DCC809118018F3031F480E18D
S1132A40809319010E94D80343CC809118018D31E1
S1132A5031F482E1809319010E94D80339CC80912A
S1132A6018018B3109F034CC81E0809319010E9464
S1132A70CA030E94D8032CCC80911901833109F038
S1132A804CC00E94C11B80E392E09F938F930E94ED
S1132A90291C0E94C81B8FE192E09F938F930E9490
S1132AA0291C809118010F900F900F900F9087317F
S1132AB0A9F480913D01813071F48AE18093190178
S1132AC00E94100410921A0180911A010E94DA04E3
S1132AD00E94D803FDCB0E94570FFACB80911801B6
S1132AE08F3031F489E1809319010E94D803F0CB2F
S1132AF0809118018D3131F484E1809319010E9491
S1132B00D803E6CB809118018B3109F0E1CB80E149
S1132B10809319010E94D803DBCB80911901843181
S1132B2009F04FC00E94C11B8EE092E09F938F93E7
S1132B300E94291C0E94C81B8DEF91E09F938F93E4
S1132B400E94291C809118010F900F900F900F90F4
S1132B508731C1F4F7018081811106C0818181111F
S1132B6003C00E94570FB4CB8CE1809319010E94DB
S1132B70460410921A0180911A010E94DA040E94FC
S1132B80D803A6CB809118018F3031F483E1809370
S1132B9019010E94D8039CCB809118018D3131F426
S1132BA085E1809319010E94D80392CB809118018A
S1132BB08B3109F08DCB80E1809319010E94D803F9
S1132BC087CB80911901853109F04DC00E94C11B4A
S1132BD08CEE91E09F938F930E94291C0E94C81B46
S1132BE08BED91E09F938F930E94291C8091180193
S1132BF00F900F900F900F908731B1F48EE1809376
S1132C0019010E94E60380919501811103C010927D
S1132C101A0103C08AE080931A0180911A010E946C
S1132C20DA040E94D80354CB809118018F3031F418
S1132C3084E1809319010E94D8034ACB8091180142
S1132C408D3131F486E1809319010E94D80340CB81
S1132C50809118018B3109F03BCB80E180931901FD
S1132C600E94D80335CB80911901863109F04CC0FC
S1132C700E94C11B8AEC91E09F938F930E94291CB0
S1132C800E94C81B89EB91E09F938F930E94291C9B
S1132C90809118010F900F900F900F908731A9F435
S1132CA080913D01882371F08FE1809319010E9486
S1132CB07C0410921A0180911A010E94DA040E9485
S1132CC0D80306CB0E94570F03CB809118018F3095
S1132CD031F485E1809319010E94D803F9CA8091E7
S1132CE018018D3131F487E1809319010E94D803D2
S1132CF0EFCA809118018B3109F0EACA80E1809310
S1132D0019010E94D803E4CA80911901873109F09E
S1132D104AC00E94C11BDF92CF920E94291C0E94CC
S1132D20C81B87E991E09F938F930E94291C80918F
S1132D3018010F900F900F900F908731A9F4F701AD
S1132D408081882371F080E2809319010E949704A6
S1132D5010921A0180911A010E94DA040E94D80389
S1132D60B7CA0E94570FB4CA809118018F3031F44A
S1132D7086E1809319010E94D803AACA80911801A0
S1132D808D3131F488E1809319010E94D803A0CADF
S1132D90809118018B3109F09BCA80E1809319015D
S1132DA00E94D80395CA80911901883109F048C05E
S1132DB00E94C11BBF92AF920E94291C0E94C81B93
S1132DC09F928F920E94291C809118010F900F905E
S1132DD00F900F908731A9F4F7018181882371F056
S1132DE081E2809319010E94B20410921A01809129
S1132DF01A010E94DA040E94D8036ACA0E94570F7B
S1132E0067CA809118018F3031F487E180931901EA
S1132E100E94D8035DCA809118018D3131F489E193
S1132E20809319010E94D80353CA809118018B31F1
S1132E3009F04ECA80E1809319010E94D80348CA60
S1132E4080911901893109F03FC00E94C11B7F9212
S1132E506F920E94291C0E94C81B5F924F920E948D
S1132E60291C809118010F900F900F900F908731BB
S1132E7061F482E28093190110921A0180911A017F
S1132E800E94DA040E94D80323CA809118018F306B
S1132E9031F488E1809319010E94D80319CA809102
S1132EA018018D3131F483E1809319010E94D80314
S1132EB00FCA809118018B3109F00ACA80E180930E
S1132EC019010E94D80304CA809119018A3121F59D
S1132ED08AE791E00E94E009813031F483E1809334
S1132EE019010E942F05F4C9823061F48BE18093AB
S1132EF0190110921A010E942B0480911A010E9458
S1132F00DA04E6C9833009F0E3C90E941004809111
S1132F101A010E94DA04DCC9809119018B3159F538
S1132F2080E491E00E94E009813069F48AE18093B1
S1132F3019010E94100484E080931A0180911A01FF
S1132F400E94DA04C5C9823061F48AE180931901D0
S1132F500E94100410921A0180911A010E94DA044E
S1132F60B7C9833009F0B4C90E942B0480911A01B7
S1132F700E94DA04ADC9809119018C3121F580E2F7
S1132F8091E00E94E009813031F484E180931901D9
S1132F900E942F059DC9823061F48DE1809319014F
S1132FA00E94610410921A0180911A010E94DA04AD
S1132FB08FC9833009F08CC90E94460480911A019C
S1132FC00E94DA0485C9809119018D3159F586E989
S1132FD091E00E94E009813069F48CE18093190149
S1132FE00E94460484E080931A0180911A010E9491
S1132FF0DA046EC9823061F48CE1809319010E9475
S1133000460410921A0180911A010E94DA0460C9E0
S1133010833009F05DC90E94610480911A010E9405
S1133020DA0456C9809119018E3109F05EC080918D
S11330301801873171F480911A01811103C08AE06B
S113304080931A010E94E60380911A010E94DA0417
S11330503FC9809118018F3009F43AC98091180151
S11330608D3139F580911A01811102C010929501B8
S113307080911A018A3019F481E0809395010E94AD
S113308036050E9441070E942F050E94FB03A89564
S1133090FFEF23ED30E3F15020403040E1F700C072
S11330A00000A8950E94E60380911A010E94DA04A8
S11330B00FC9809118018B3109F00AC980911A0156
S11330C0811105C085E1809319010E942F0580912B
S11330D01A018A3009F0FCC810921A010E94E60312
S11330E080911A010E94DA04F3C8809119018F318A
S11330F021F581EB91E00E94B10A813031F486E13F
S1133100809319010E942F05E3C8823061F48FE196
S1133110809319010E947C0410921A0180911A0173
S11331200E94DA04D5C8833009F0D2C80E947C0416
S113313080911A010E94DA04CBC88091190180326F
S113314009F586E691E00E94B10A813031F487E105
S1133150809319010E942F05BBC8823049F40E9454
S1133160970410921A0180911A010E94DA04B0C8DF
S1133170833009F0ADC80E94970480911A010E941F
S1133180DA04A6C8809119018132F9F48DE591E041
S11331900E94B10A813021F488E18093190198C812
S11331A0823049F40E94B20410921A0180911A01EB
S11331B00E94DA048DC8833009F08AC80E94B204E0
S11331C080911A010E94DA0483C880911901823225
S11331D051F50E94DC0E80911801873131F483E2AD
S11331E0809319010E94D80373C8809118018F300D
S11331F031F481E080933D010E94D80369C8809135
S113320018018D3129F410923D010E94D80360C841
S1133210809118018B3109F05BC885E28093190114
S11332200E94D80355C880911901833251F50E9438
S1133230FE0E80911801873131F484E280931901E4
S11332400E94D80345C8809118018F3031F481E081
S1133250F70180830E94D8033BC8809118018D3107
S113326029F4F70110820E94D80332C88091180112
S11332708B3109F02DC882E2809319010E94D80392
S113328027C880911901843261F50E94200F809132
S11332901801873131F485E2809319010E94D80323
S11332A017C8809118018F3031F481E0F7018183D0
S11332B00E94D8030DC8809118018D3129F4F701BB
S11332C011820E94D80304C8809118018B3111F037
S11332D00C94681183E2809319010E94D8030C9422
S11332E0681180911901853209F049C00E94420F8A
S11332F080911801873149F40E94410789E1809344
S113330019010E94D8030C946811809118018F3020
S113331049F40E94410789E1809319010E94D8036E
S11333200C946811809118018D31D1F40E943605F6
S11333300E9441070E942F050E94FB03A895FFEFFE
S113334023ED30E3F15020403040E1F700C00000AD
S1133350A89589E1809319010E94D8030C946811FF
S1133360809118018B3111F00C9468110E9441076F
S113337089E1809319010E94D8030C94681180910B
S11333801901863209F04AC00E94C11B87E890E007
S11333909F938F930E94291C0E94C81B26E730E04C
S11333A03F932F930E94291C809118010F900F9036
S11333B00F900F90873149F481E0809319010E94A6
S11333C0CA030E94D8030C946811809118018F30AD
S11333D049F481E0809319010E94CA030E94D80332
S11333E00C946811809118018D3149F481E0809327
S11333F019010E94CA030E94D8030C946811809199
S113340018018B3111F00C94681181E0809319013B
S11334100E94CA030E94D8030C9468118091190178
S1133420873209F0D4C00E94C11B1F930F933F92AF
S11334302F920E94131C0E94C81B80916E001F9241
S11334408F9380913C018F9380913B018F93E8EFA0
S1133450F0E0FF93EF930E94131C80911801EDB7E5
S1133460FEB73A960FB6F894FEBF0FBEEDBF873194
S1133470E1F40E9436050E9441070E942F050E9434
S1133480FB03A895FFEF23ED30E3F15020403040DB
S1133490E1F700C00000A89581E0809319010E9423
S11334A0CA030E94D8030C946811809118018F30CC
S11334B0D9F580916E00813051F480913B01909157
S11334C03C01019690933C0180933B011CC08A30DF
S11334D051F480913B0190913C010A9690933C01F8
S11334E080933B0110C0843659F480913B01909144
S11334F03C018C599F4F90933C0180933B0103C046
S113350081E080936E0080913B0190913C01813D6C
S1133510974030F020ED37E030933C0120933B019D
S11335200E94D8030C946811809118018D3171F5B3
S113353080913B0190913C01009721F120916E0014
S1133540213031F4019790933C0180933B011AC0E0
S11335502A3049F48A309105A8F00A9790933C01E7
S113356080933B010FC0243651F48436910550F00A
S11335708456910990933C0180933B0103C081E000
S113358080936E000E94D8030C94681180911801F6
S11335908B3111F00C94681180916E00813021F40C
S11335A08AE080936E000FC08A3021F484E6809311
S11335B06E0009C0843621F481E080936E0003C05C
S11335C081E080936E000E94D8030C94681181E01E
S11335D0809319010E94CA030C94681181E08093BE
S11335E019010E94CA030C94351190910F0199237B
S11335F011F40C94CB118FE10C94DC11C498662364
S113360011F0C69A01C0C69898B3907F8F70892B29
S113361088BBC59A82E08A95F1F700C0C5980895E1
S1133620C49A97B3907F97BB882311F0C69A01C0C0
S1133630C698C59A82E08A95F1F700C086B3C5980A
S113364097B39F6097BBC4988F700895CF93DF930F
S1133650C82FD62F82958F700E94FE1A6D2F8C2F43
S11336608F700E94FE1ADF91CF910895CF93DF935C
S1133670C82F0E94101BD82FD295D07F8C2F0E9468
S1133680101B8D2BDF91CF91089580E00E94361B93
S11336908823DCF308958FE787BB8FE59AEE0197C3
S11336A0F1F700C0000060E083E00E94FE1A8FE0A2
S11336B090E40197F1F700C0000060E083E00E940D
S11336C0FE1A8FE891E00197F1F700C0000060E076
S11336D083E00E94FE1A60E082E00E94FE1A0E94CB
S11336E0451B60E088E20E94261B0E94451B60E0A7
S11336F088E00E94261B0E94451B08950E944B1BD4
S113370060E081E00E94261B0E94451B60E086E089
S11337100E94261B0E94451B60E08EE00E94261B2F
S11337200E94451B0895CF9390911F01992329F07E
S11337308A3029F010921F0106C08A3021F481E0FA
S113374080931F0107C0C82F0E94451B61E08C2F86
S11337500E94261B80E090E0CF9108950E94451BB3
S113376060E081E00E94261B0E94451B60E082E02D
S11337700E94261B0E94451B60E080E80E94261BD5
S113378008950E94451B60E080E80E94261B08956E
S11337900E94451B60E080EC0E94261B0895A1E274
S11337A01A2EAA1BBB1BFD010DC0AA1FBB1FEE1FB7
S11337B0FF1FA217B307E407F50720F0A21BB30B02
S11337C0E40BF50B661F771F881F991F1A9469F77E
S11337D060957095809590959B01AC01BD01CF01DA
S11337E00895A29FB001B39FC001A39F700D811DD6
S11337F01124911DB29F700D811D1124911D0895F6
S11338000E94F11BA59F900DB49F900DA49F800D65
S1133810911D11240895B7FF0C94001C0E94001CF4
S1133820821B930B0895A0E0B0E0E9E1FCE10C9465
S11338302E1FAE014B5F5F4FFA0161917191AF0191
S11338408091C8019091C9010E944F1CE2E00C9440
S11338504A1FA0E0B0E0EFE2FCE10C942C1FAE01A3
S1133860495F5F4FDA016D917D91AD0106EC11E086
S1133870F80182819381DC0113962C9113972860BF
S113388013962C930E944F1CD8011296ED91FC9133
S113389013972381277F2383E4E00C94481FABE034
S11338A0B0E0E5E5FCE10C941E1F6C017B018A018C
S11338B0FC0117821682838181FFCCC1CE0101965F
S11338C03C01F6019381F70193FD859193FF81916A
S11338D07F01882309F4BAC1853239F493FD8591B7
S11338E093FF81917F01853229F4B60190E00E9413
S11338F0461EE7CF912C212C312CFFE1F315D8F093
S11339008B3279F038F4803279F08332A1F4232DAC
S113391020611DC08D3261F0803369F4232D216054
S113392016C0832D8260382EE32DE4603E2E2AC01B
S1133930F32DF8601DC037FC2DC020ED280F2A3070
S113394040F08E32B9F436FC81C1232D2064322E2E
S113395019C036FE06C08AE0989E200D1124922ECE
S113396011C0EAE02E9E200D1124222EF32DF062C8
S11339703F2E08C08C3621F4832D8068382E02C077
S1133980883641F4F70193FD859193FF81917F017E
S11339908111B3CF982F9F7D9554933028F40C5FF9
S11339A01F4F9FE399830DC0833631F0833771F045
S11339B0833509F059C021C0F801808189830E5FE5
S11339C01F4F88248394912C530113C02801F2E0E3
S11339D04F0E511CF801A080B18036FE03C0692D42
S11339E070E002C06FEF7FEFC5010E943B1E4C01E7
S11339F08201F32DFF773F2E16C0280122E0420EEC
S1133A00511CF801A080B18036FE03C0692D70E01E
S1133A1002C06FEF7FEFC5010E94301E4C01F32DF1
S1133A20F0683F2E820133FC1BC0822D90E0881683
S1133A309906B0F4B60180E290E00E94461E2A94F2
S1133A40F4CFF50137FC859137FE81915F01B60112
S1133A5090E00E94461E21102A9421E0821A9108C7
S1133A608114910471F7E8C0843611F0893641F568
S1133A70F80137FE07C060817181828193810C5FF8
S1133A801F4F08C060817181072E000C880B990BB1
S1133A900E5F1F4FF32DFF763F2E97FF09C09095C1
S1133AA08095709561957F4F8F4F9F4FF0683F2EA3
S1133AB02AE030E0A3010E94821E882E861845C0A9
S1133AC0853731F4232D2F7EB22E2AE030E025C035
S1133AD0932D997FB92E8F36C1F018F4883579F07B
S1133AE0B5C0803719F0883721F0B0C0E92FE06104
S1133AF0BE2EB4FE0DC0FB2DF460BF2E09C034FEF3
S1133B000AC0292F2660B22E06C028E030E005C086
S1133B1020E130E002C020E132E0F801B7FE07C046
S1133B2060817181828193810C5F1F4F06C0608127
S1133B30718180E090E00E5F1F4FA3010E94821EFE
S1133B40882E8618FB2DFF773F2E36FE0DC0232DC1
S1133B502E7FA22E891458F434FE0BC032FC09C007
S1133B60832D8E7EA82E05C0B82CA32C03C0B82CA0
S1133B7001C0B92CA4FE0FC0FE01E80DF11D808127
S1133B80803321F49A2D997EA92E09C0A2FE06C085
S1133B90B394B39404C08A2D867809F0B394A3FC3B
S1133BA011C0A0FE06C0B21488F4280C922C9B18F5
S1133BB00EC0B21460F4B60180E290E00E94461E8A
S1133BC0B394F7CFB21418F42B1802C0982C212CFC
S1133BD0A4FE10C0B60180E390E00E94461EA2FE3F
S1133BE017C0A1FC03C088E790E002C088E590E01C
S1133BF0B6010CC08A2D867859F0A1FE02C08BE272
S1133C0001C080E2A7FC8DE2B60190E00E94461E4E
S1133C10891438F4B60180E390E00E94461E9A9419
S1133C20F7CF8A94F301E80DF11D8081B60190E08D
S1133C300E94461E8110F5CF222009F442CEB6011F
S1133C4080E290E00E94461E2A94F6CFF601868117
S1133C50978102C08FEF9FEF2B96E2E10C943A1FFD
S1133C60FC010590615070400110D8F78095909543
S1133C708E0F9F1F0895FC01615070400190011048
S1133C80D8F7809590958E0F9F1F08950F931F93DB
S1133C90CF93DF93FB01238121FD03C08FEF9FEFBF
S1133CA02CC022FF16C046815781248135814217DA
S1133CB0530744F4A081B1819D012F5F3F4F3183AD
S1133CC020838C93268137812F5F3F4F3783268350
S1133CD014C08B01EC01FB010084F185E02D0995F2
S1133CE0892BE1F6D80116968D919C911797019630
S1133CF017969C938E931697CE01DF91CF911F91C7
S1133D000F910895FA01AA27283051F1203181F149
S1133D10E8946F936E7F6E5F7F4F8F4F9F4FAF4FCF
S1133D20B1E03ED0B4E03CD0670F781F891F9A1FE2
S1133D30A11D680F791F8A1F911DA11D6A0F711D96
S1133D40811D911DA11D20D009F468943F912AE0A2
S1133D50269F11243019305D3193DEF6CF0108958A
S1133D60462F4770405D4193B3E00FD0C9F7F6CFBB
S1133D70462F4F70405D4A3318F0495D31FD405283
S1133D80419302D0A9F7EACFB4E0A6959795879519
S1133D9077956795BA95C9F70097610571050895F8
S1133DA09B01AC010A2E06945795479537952795A4
S1133DB0BA95C9F7620F731F841F951FA01D08953C
S1133DC0E199FECF9FBB8EBBE09A99278DB30895EE
S1133DD0A6E1B0E044E050E00C94101FA8E1B0E08C
S1133DE042E050E00C94101F262FE199FECF9FBBB8
S1133DF08EBB2DBB0FB6F894E29AE19A0FBE0196E2
S1133E000895242F0E94F51E252F0E94F51E0C9460
S1133E10091F0E94F41E272F0C94F51EDC01CB0110
S1133E20FC01E199FECF06C0FFBBEEBBE09A3196E0
S1133E300DB20D9241505040B8F708952F923F9221
S1133E404F925F926F927F928F929F92AF92BF92A6
S1133E50CF92DF92EF92FF920F931F93CF93DF9352
S1133E60CDB7DEB7CA1BDB0B0FB6F894DEBF0FBEAF
S1133E70CDBF09942A88398848885F846E847D84FC
S1133E808C849B84AA84B984C884DF80EE80FD80FE
S1133E900C811B81AA81B981CE0FD11D0FB6F89474
S1113EA0DEBF0FBECDBFED010895F894FFCF35
S1133EAE0000000200000000931B0000000001252A
S1133EBE2E3573202020202053617665202020008B
S1133ECE2573202020202020536176652020002594
S1133EDE7320202020536176652020004143204F1B
S1133EEE46462020257320002573207620202000AE
S1133EFE2D257320004143204F4E20202025732072
S1133F0E004261743A257320002D25730020257319
S1133F1E00576F726B696E673A2573200052657392
S1133F2E74696E673A257320004261747465727900
S1133F3E3A20257320202000436F6566662E203AB2
S10F3F4E25302E34752025302E337500EC
S9030000FC
